:020000040000FA
:0600000021EF0AF01200DE
:0A0006000200A5140000FB0000003A
:1000100001000000AC14000060000000400000007F
:10002000D9CFE6FFE1CFD9FFE652DF6A080EDF5CE9
:1000300019E2DF50E76EFD0EDBCFE9FFFE0EDBCFEE
:10004000EAFFE750E926000EEA22EFCF00F0DF508A
:10005000EA6AA00FE96E000EEA22EF50005C02E1AE
:10006000DF2AE4D7080EDF5C02E1000E1AD0DF5071
:10007000EA6AA00FE96E000EEA22EFCF00F0DF502F
:10008000E76EFD0EDBCFE9FFFE0EDBCFEAFFE750A8
:10009000E926000EEA22EF50005C02E2FF0E01D0DA
:1000A000010EE552E552E7CFD9FF1200D9CFE6FFA6
:1000B000E1CFD9FFE652DF6A080EDF5C13E2DF50C2
:1000C000EA6AA00FE96E000EEA22EF50E66EDF50FA
:1000D000EA6AB40FE96E000EEA22E552E750EF6ECD
:1000E000DF2AEAD7E552E552E7CFD9FF1200D9CF90
:1000F000E6FFE1CFD9FFFE0EDB506F6EE00E6E140F
:10010000006EFE0EDB50005CF9E1E552E7CFD9FF4F
:100110001200D9CFE6FFE1CFD9FF800EE66EE7DF10
:10012000E552FE0EDBCF0EFFE66AE1DFE552E55257
:10013000E7CFD9FF1200D9CFE6FFE1CFD9FF040EF8
:10014000E126FD0EDBCFE9FFFE0EDBCFEAFFEF98E5
:10015000FD0EDBCFE9FFFE0EDBCFEAFF040EE92642
:10016000000EEA220F0EEF140009EF6EFD0EDBCF3A
:10017000E9FFFE0EDBCFEAFF040EE926000EEA22BD
:10018000EF500F0B08080EE2FD0EDBCFE9FFFE0E6D
:10019000DBCFEAFF040EE926000EEA22F00EEF1490
:1001A0000809EF6EFD0EDBCFE9FFFE0EDBCFEAFFA5
:1001B000EE52EF50E00BE838E840006EFD0EDBCF6A
:1001C000E9FFFE0EDBCFEAFF0050070BF36EF80EDF
:1001D000EF14F310EF6EFD0EDBCFE9FFFE0EDBCF69
:1001E000EAFFEE52EF50030BE76E030EE7CFDBFFA3
:1001F000FD0EDBCFE9FFFE0EDBCFEAFFEE52EF5044
:100200001C0B080DF350E66EFD0EDBCFE9FFFE0E72
:10021000DBCFEAFFEE52E552E750EF6E030EDB5004
:100220000809006EFD0EDBCFE9FFFE0EDBCFEAFF13
:10023000EE520050EF1260B6FED7D950010FE96EB2
:10024000DACFEAFF610EEE6E0F0EED6EDF6AFD0E85
:10025000DBCFE9FFFE0EDBCFEAFF040EE926000E3E
:10026000EA22EF500F0B050FDF5C1EE2FD0EDBCF25
:10027000E9FFFE0EDBCFEAFFDF50E924E96E000E56
:10028000EA20EA6EEF50E66E010EDBCFE9FF020EC8
:10029000DBCFEAFFE552E750EF6EDF2A010EDB2AE3
:1002A000020ED5E3DB2AD3D76086040EE15C02E2BE
:1002B000E16AE552E16EE552E7CFD9FF1200D9CFEE
:1002C000E6FFE1CFD9FF0001AF8BAF8DAF9FEE0E00
:1002D000B06FB169B391B393B395B387FE0EDB04EE
:1002E00020E0AD51B25D3EE1B40EE66E000EE66E6A
:1002F00097DEE552E552FF0814E0D8DE0001FE0E5D
:10030000B26FA50E776EAF0EE66E000EE66E13DFCF
:10031000E552E552E668FDDEE5520001AE81AE939E
:1003200021D0C4DEA8C0B2F0A50E776EAF0EE66E87
:10033000000EE66E00DFE552E552800E0001A815C2
:1003400004E0F80EA815F80808E1AE91A8C0ADF0D9
:10035000A8C0E6FFDEDEE55205D0AE83A96BAA6B2E
:10036000AB6BAC6BE552E7CFD9FF1200D9CFE6FFFC
:10037000E1CFD9FFE652DF6A0001BE5107E1AEA12D
:1003800002D0020E01D0010EDF6E4AD0BC510D0D1D
:10039000F3CFE9FFF4CFEAFFBF0EE926000EEA2211
:1003A000EECF00F0EECF01F0EECF02F0EECF03F093
:1003B000EECF04F0EECF05F0EECF06F0EECF07F073
:1003C000EECF08F0EECF09F0EECF0AF0EECF0BF053
:1003D000EFCF0CF0FD0EDBCFE9FFFE0EDBCFEAFF27
:1003E00000C0EEFF01C0EEFF02C0EEFF03C0EEFF53
:1003F00004C0EEFF05C0EEFF06C0EEFF07C0EEFF33
:1004000008C0EEFF09C0EEFF0AC0EEFF0BC0EEFF12
:100410000CC0EEFFBC2B010EBC5D01E3BC6BBE0744
:10042000DF50E552E552E7CFD9FF1200D9CFE6FF02
:10043000E1CFD9FFE652DF6AA3980001AEA102D056
:10044000020E4ED0010ECE5D06E2CE2BCD2B010E5C
:10045000CD5D01E3CD6BFD0EDBCFE9FFFE0EDBCF03
:10046000EAFFEECF00F0EECF01F0EECF02F0EECFDC
:1004700003F0EECF04F0EECF05F0EECF06F0EECFB6
:1004800007F0EECF08F0EECF09F0EECF0AF0EECF96
:100490000BF0EFCF0CF0CD510D0DF3CFE9FFF4CF02
:1004A000EAFFCF0EE926000EEA2200C0EEFF01C0EF
:1004B000EEFF02C0EEFF03C0EEFF04C0EEFF05C07A
:1004C000EEFF06C0EEFF07C0EEFF08C0EEFF09C05A
:1004D000EEFF0AC0EEFF0BC0EEFF0CC0EEFF01D036
:1004E000DF6EDF50E552E552E7CFD9FF1200D9CFDA
:1004F000E6FFE1CFD9FFE6520001010EAE6FA96B16
:10050000AA6BAB6BAC6BCC6BCD69CE6BBC6BBD69B6
:10051000BE6BFE0EDB500BE0020EAD6FA76BA66B41
:10052000A56BA46BA36BA26BA16B320EA06FADC0C9
:10053000A8F0800EE66EDBDDE552A00E776E0D01B1
:10054000E00EF86F0F01070E186F880E196F1A6B07
:100550001B6B1C6B080E1D6F1E691F6B070E006F57
:10056000880E016F080E096F0A690D6F0E690D0183
:100570005C0EF06FE06BE16BE26B0D0ED46FD56B30
:10058000010E706EBF0E716E870E726EE66AAFDD81
:10059000E552A50E776E030E606E010EE66E8FDEDD
:1005A000E552E552E552E7CFD9FF1200D9CFE6FF79
:1005B000E1CFD9FF020EE126FB0EDB500001A92797
:1005C000FC0EDB50AA23FD0EDB50AB23FE0EDB50EE
:1005D000AC2320D801D90001AE51020B11E0900EDE
:1005E000A95DD00EAA59030EAB59000EAC5908E311
:1005F000AE91AE93A8C0ADF0A8C0E6FF8ADDE5528B
:10060000020EE15C02E2E16AE552E16EE552E7CFFB
:10061000D9FF1200D9CFE6FFE1CFD9FF040EE126C2
:10062000020EDB6A74AEB1D0070E6F14B009776E9C
:10063000610EDE6E0F0EDD6E030EDB6A050EF36ECD
:10064000030EDBCFF4FFF350F45C17E2DECFE9FFDB
:10065000DDCFEAFFEF50E66E030EDB50EA6AAF0F24
:10066000E96E000EEA22E552E750EF6E030EDB2A38
:10067000DF2A010EE3E3DB2AE1D70001B3510F0BC0
:10068000080804E2B391B393B395B387030EDB6A12
:10069000B3510F0BF36E030EDBCFF4FFF350F45C9A
:1006A00017E2DECFE9FFDDCFEAFFEF50E66E030E83
:1006B000DB50EA6AB40FE96E000EEA22E552E75019
:1006C000EF6E030EDB2ADF2A010EE2E3DB2AE0D71E
:1006D000609E749E749EE00EB015E840E840E840CD
:1006E0001F0BE76E030EE7CFDBFFAF51070B070BC6
:1006F000200DF3CF00F0030EDBCFE6FFB015E5527F
:10070000E710F310B06FE850EE0A0BE0040A0EE1B8
:10071000B4510CE1EA0EB55D09E1B65107E13FD8ED
:1007200081D7020EE66ECBDDE5527CD7010E0001CB
:10073000BE5D06E2BE2BBD2B010EBD5D01E3BD6BB0
:10074000BD510D0DF3CFE9FFF4CFEAFFBF0EE9264F
:10075000000EEA22AFC0EEFFB0C0EEFFB1C0EEFF68
:10076000B2C0EEFFB3C0EEFFB4C0EEFFB5C0EEFF07
:10077000B6C0EEFFB7C0EEFFB8C0EEFFB9C0EEFFE7
:10078000BAC0EEFFBBC0EEFF4DD7040EE15C02E243
:10079000E16AE552E16EE552E7CFD9FF12000001B0
:1007A000AEA103D0FE0EB26F02D0ADC0B2F0AF8BDF
:1007B000AF8DAF9FEE0EB06FB169B391B393B395A8
:1007C000B38774DCA50E776EAF0EE66E000EE66E94
:1007D000B2DCE552E5521200D9CFE6FFE1CFD9FFF6
:1007E000020EE126040EDF6E0001CE5103E100018E
:1007F000FB6B52D0AEB10ED00001FB510EE0FB05F9
:10080000F76AA00FF66E140EF7220800F550776E07
:1008100060A602D0020E41D0FB6B0001CE51000851
:100820003BE2050E0001FB5D37E2FB51F76AA00FCA
:10083000F66E140EF7220800F550776E60B629D0D8
:100840000001CC510D0DF3CFE9FFF4CFEAFFCF0E3D
:10085000E926000EEA22030EE926000EEA22ADC0C8
:10086000EFFFCC510D0DF3CF00F0F4CF01F0CF0E20
:100870000026000E012200C0E6FF01C0E6FF5BDC9F
:10088000E552E5520001CC2B010ECC5D01E3CC6BAF
:10089000CE070001FB2BC1D7000E006E020EE15CFB
:1008A00002E2E16AE552E16E0050E552E7CFD9FF7E
:0208B000120034
:0E08B200D9CFE6FFE1CFD9FF140EE126120EDA
:1008C000DB6A130EDB6A8CEC08F0010EE66E77EC47
:1008D00002F0E552FED8CF0EE66EE66A3C0EE66EFA
:1008E0002BEC09F0E552E552E552B896AB8E0001CB
:1008F000AEA30CD0050EE66EE66AE66AE66AD6ECB2
:1009000002F0E552E552E552E552F1D78B928B8029
:100910000A0EE66EE66AE66AE66AD6EC02F0E55290
:10092000E552E552E5520001BE51000856E2DC0EE8
:10093000E66E000EE66EB6EC01F0E552E552FF0EF3
:100940000001DD5D08E1E00EDE5D05E1010E000164
:10095000686F696BE8D7DD05E6E1DF05E4E18B82CE
:10096000A30EE15D04E100016A2B000E6B23E1C0E0
:10097000E6FFDC0EE66E000EE66EC7D8E552E552E5
:10098000E55200016B35CFE26A510308000E6B554A
:10099000CAE21BDA0E0E11C0DBFF0F0E12C0DBFF26
:1009A000100E13C0DBFF110E14C0DBFFD9500E0F69
:1009B000E96EDACFEAFFEE5000016C5DEE506D5942
:1009C000EE506E59EE506F5903E32FD9A3D901D0E1
:1009D000DDD900016A6B6B6BA6D70001010E6819A7
:1009E00095E1695193E1686B696B53EC0AF043EC54
:1009F0000AF00009FCE13AEC0AF0F3CF00F0F4CF82
:100A000001F0026A036A01AE02D002680368020EB6
:100A100000C0DBFF030E01C0DBFF040E02C0DBFFE2
:100A2000050E03C0DBFF020EDBCF00F0030EDBCFB1
:100A300001F0040EDBCF02F0050EDBCF03F0080E51
:100A4000D8900332023201320032E806F9E1120E88
:100A500000C0DBFF020EDBCF00F0030EDBCF01F0A6
:100A6000040EDBCF02F0050EDBCF03F0080E1F0BE8
:100A700007E0D8900036013602360336E806F9E181
:100A8000080ED8900332023201320032E806F9E152
:100A9000130E00C0DBFF120EDBCF96F00001976B48
:100AA00096BF9769130EDBCF98F0996B98BF996941
:100AB000F90EE66E000EE66EE10EE66EDC0EE66EF8
:100AC000000EE66E88EC07F0006E050EE15E005049
:100AD0001DD7C46AC36AC290C294C296C298C29A11
:100AE000C19AC198C190C182C184C186C08EC0869E
:100AF000C098C09AC090C082C0849280C280050E07
:100B0000E66E2FEC0AF0E5521200D9CFE6FFE1CFF6
:100B1000D9FF120EE126080EDB6A090EDB6A080E09
:100B2000DBCF00F0090EDBCF01F0080E005C000EF9
:100B3000015871E2FC0EDB50006E016A080EDBCF3B
:100B4000E9FF090EDBCFEAFF060EEA02F3CFEAFF68
:100B5000E902F3CFE9FFF450EA26700EE926000E11
:100B6000EA22EECF02F0EFCF03F0025000184CE182
:100B70000350011849E1080EDBCFE9FF090EDBCF76
:100B8000EAFF060EEA02F3CFEAFFE902F3CFE9FF3C
:100B9000F450EA26700EE926000EEA22020EE9263B
:100BA000000EEA220A0EEFCFDBFF080EDBCFE9FFD3
:100BB000090EDBCFEAFF060EEA02F3CFEAFFE902F5
:100BC000F3CFE9FFF450EA26700EE926000EEA2280
:100BD000040EE926000EEA220B0EEFCFDBFFD95000
:100BE0000A0FE66E000EDA20E66EFC0EDBCFE6FFA3
:100BF000FD0EDBCFE6FFFE0EDBCFE6FF88EC07F055
:100C0000006E050EE15E0050080EDB2A090E01E2BF
:100C100086D7DB2A84D7120EE15C02E2E16AE55254
:100C2000E16EE552E7CFD9FF1200D9CFE6FFE1CF61
:100C3000D9FF040EE126030EDE6EDD6ADECF00F082
:100C4000DDCF01F0013404E200500B08000E015426
:100C500057E3DECFE9FFDDCFEAFFE90EE926000E1C
:100C6000EA22EF5048E1DECFE9FFDDCFEAFF020ED6
:100C7000E926000EEA22E90EE926000EEA22EF50EC
:100C80003AE1020EDB6A030EDB6A020EDBCF00F0F4
:100C9000030EDBCF01F0013404E200500708000E20
:100CA000015429E3DECF00F0DDCF01F0030E005E3A
:100CB000000E015A020EDB500024E96E030EDB50D9
:100CC0000120EA6EE90EE926000EEA22EF50E66EF8
:100CD000020EDBCFE9FF030EDBCFEAFF600EE92651
:100CE000000EEA22E552E750EF6E020EDB2A030EF9
:100CF000CCE3DB2ACAD7DF2A010EA0E3DB2A9ED78A
:100D0000040EE15C02E2E16AE552E16EE552E7CFF2
:100D1000D9FF120000019C6B9D6B60C09EF09F6B21
:100D20009EBF9F69140E9E1906E19F5104E1726BEC
:100D3000736B746B03D07269736B7469756B7E6BC4
:100D40007F6B61C080F0816B80BF81698A6B8B6B28
:100D500062C08CF08D6B8CBF8D69786B796B64C0D1
:100D60007AF07B6B7ABF7B6965C084F0856B84BF4A
:100D7000856966C086F0876B86BF8769906B916BCB
:100D800067C092F0936B92BF936912000001726B7F
:100D9000736B746B756B9C6B9D6B140E9E6F9F6B6E
:100DA0007E6B7F6B806B816B8A6B8B6B8C6B8D6BBF
:100DB000786B796B7A6B7B6B846B856B866B876BDF
:100DC000906B916B926B936B1200D9CFE6FFE1CFE2
:100DD000D9FF060EE126AB50020B03E1AB50040B2A
:100DE00003E0AB980000AB88DE6ADD6ADECF00F07E
:100DF000DDCF01F0D890015004E6080E005C000E33
:100E0000015867E2020EDB6A030EDB6A040EDB6A3E
:100E1000050EDB6A9EBA1ED0D950020FE96EDACFFA
:100E2000EAFFEE2A000EEE22EE22EE22D950020F49
:100E3000E96EDACFEAFFEE5000016C5DEE50000182
:100E40006D59EE5000016E59EE5000016F5901E2EC
:100E500001D0E0D7D950020FE96EDACFEAFFEE50A9
:100E600000016C5DEE5000016D59EE5000016E59AD
:100E7000EE5000016F5901E22CD0A1EC09F0E66EB2
:100E8000DECFE9FFDDCFEAFFE90EE926000EEA2218
:100E9000E552E750EF6EDECFE9FFDDCFEAFFE90E66
:100EA000E926000EEA22EF50E66EDECFE9FFDDCF45
:100EB000EAFF080EE926000EEA22E90EE926000EF6
:100EC000EA22E552E750EF6EDF2A010E01E3DB2A4A
:100ED0008DD7020EDBCF00F0030EDBCF01F0040E46
:100EE000DBCF02F0050EDBCF03F000C011F001C034
:100EF00012F002C013F003C014F000D0060EE15C43
:100F000002E2E16AE552E16EE552E7CFD9FF120055
:100F1000D9CFE6FFE1CFD9FF020EE126FD0EDBCFF0
:100F2000E9FFFE0EDBCFEAFFEF96FD0EDBCFE9FF18
:100F3000FE0EDBCFEAFF1F0EEF146009EF6EFD0E11
:100F4000DBCFE9FFFE0EDBCFEAFF020EE926000E43
:100F5000EA22EF68FD0EDBCFE9FFFE0EDBCFEAFFF2
:100F6000020EE926000EEA22FC0EDBCFEFFFFD0E9B
:100F7000DBCFE9FFFE0EDBCFEAFF040EE926000E11
:100F8000EA22F00EEF140209EF6EFD0EDBCFE9FF4F
:100F9000FE0EDBCFEAFFEE52EF68DE6ADD6ADECFDF
:100FA00000F0DDCF01F0020E005C000E015826E2D9
:100FB000FA0EDBCF02F0FB0EDBCF03F0DE50022493
:100FC000E96EDD500320EA6EEF50E66EFD0EDBCFDA
:100FD000E9FFFE0EDBCFEAFF050EE926000EEA224E
:100FE000DE50E924E96EDD50EA20EA6EE552E75072
:100FF000EF6EDF2A010ED3E3DB2AD1D7FD0EDBCF64
:10100000E6FFFE0EDBCFE6FF16EC02F0E552E552FE
:1010100000090CE0050EE66EE66AE66AE66AD6ECC2
:1010200002F0E552E552E552E552E8D7020EE15CE6
:1010300002E2E16AE552E16EE552E7CFD9FF120024
:10104000D9CFE6FFE1CFD9FFFD0EDBCFE9FFFE0EE2
:10105000DBCFEAFFEF96FD0EDBCFE9FFFE0EDBCF25
:10106000EAFF1F0EEF146009EF6EFD0EDBCFE9FF04
:10107000FE0EDBCFEAFF020EE926000EEA22FB0E8F
:10108000DBCFEFFFFD0EDBCFE9FFFE0EDBCFEAFF8C
:10109000040EE926000EEA22F00EEF140109EF6EAD
:1010A000FD0EDBCFE9FFFE0EDBCFEAFFEE52010EB5
:1010B000EF6EFD0EDBCFE9FFFE0EDBCFEAFF050E84
:1010C000E926000EEA22F90EDBCFEFFFFD0EDBCFA3
:1010D000E6FFFE0EDBCFE6FF16EC02F0E552E5522E
:1010E00000090CE0050EE66EE66AE66AE66AD6ECF2
:1010F00002F0E552E552E552E552E8D7E552E7CF76
:10110000D9FF1200D38CD38AD3889B8C0A0EE66E4B
:10111000C0EC09F0E55212000F0EC16E020E926E85
:10112000080E936E800E946E8B6E82EF08F0D9CF0E
:10113000E6FFE1CFD9FFACA2FED7FD0EDBCFE6FF85
:10114000D7EC09F0E552E552E7CFD9FF1200D9CF2D
:10115000E6FFE1CFD9FFFF0EE66EE66AE8DFE55273
:10116000E552FE0EDBCF00F0016A00BE016800C050
:10117000E6FF01C0E6FFDBDFE552E552FD0EDBCF07
:1011800000F0016A00BE016800C0E6FF01C0E6FF92
:10119000CEDFE552E552FC0EDBCF00F0016A00BE67
:1011A000016800C0E6FF01C0E6FFC1DFE552E5527D
:0811B000E552E7CFD9FF120060
:0811B800060EF66E000EF76E44
:1011C000000EF86E01010900F550056F0900F55099
:1011D000066F03E1056701D03DD00900F550006FAF
:1011E0000900F550016F0900F550026F0900090070
:1011F000F550E96E0900F550EA6E09000900090092
:10120000F550036F0900F550046F09000900F6CF8F
:1012100007F1F7CF08F1F8CF09F100C1F6FF01C1DE
:10122000F7FF02C1F8FF0101035302E1045307E095
:101230000900F550EE6E0307F8E20407F9D707C17D
:10124000F6FF08C1F7FF09C1F8FF01010507000E0D
:06125000065BBFD712008F
:0A125600D9CFE6FFDACFE6FFE1CFC3
:10126000D9FFE2CFDAFFAC6AAB6AFD0EDBB0AC8827
:10127000DBA202D0AC8CAB8CDBB4AC8EDBA602D094
:10128000AB8801D0AB8ADBB8AC849E98DBBAAB8666
:10129000DBAC02D09D8A01D09D9A9E9ADBAE02D033
:1012A0009D8801D09D98FB0EDB50AF6EFB0EFC0EAF
:1012B000DBCF01F001C000F0016A0050B06EAC8AD3
:1012C000AB8E949C948EAC50100B04E0AC50800B11
:1012D00001E1948CE552E5CFDAFFE7CFD9FF1200A8
:1012E000D9CFE6FFE1CFD9FFC26AC06AFD0EDB406D
:1012F0007F0B3C0BC26EFD0EDB38F00B300B006E2B
:10130000FC0EDB500F0B0010C16EFE0EDB50040D07
:10131000F350380B016EFE0EDB380F0B070B006E1F
:10132000FE0EDB50800B00100110C06EFD0EDBAE18
:1013300003D09E9C9D8CF28CC280E552E7CFD9FFF2
:02134000120099
:0E134200D9CFE6FFDACFE6FFE1CFD9FFE2CF49
:10135000DAFFE652F20E0001FA17ABAC03D0FA91B5
:10136000ABB0FA81ABB4FA85ABB2FA87AE50DF6EA0
:10137000DF50E552E552E5CFDAFFE7CFD9FF1200A3
:10138000FF0EE350196EEF0E01D0F30EE76EE72E5D
:10139000C7EF09F00C0E186EE76AE72ECDEF09F0E3
:0E13A000182ECCEF09F0192EC5EF09F012003F
:0213AE00D9CF95
:1013B000E6FFDACFE6FFE1CFD9FFE2CFDAFFACAC50
:1013C00004D0AC900001FAB3AC80FD0EDB50AD6EE2
:0C13D000E552E5CFDAFFE7CFD9FF1200AD
:0413DC00D9CFE6FF80
:1013E000E1CFD9FFFE0EDB407F0B3C0B006EC30E3E
:1013F000C2140010C26EC282E552E7CFD9FF1200BC
:10140000D9CFE6FFE1CFD9FFC30EC214006EFE0EA6
:10141000DB407F0B3C0B0010C26EE552E7CFD9FFDB
:021420001200B8
:0E142200000EF36E00EE00F00D0E01D8120069
:10143000EA6002D0EE6AFCD7F350E9601200EE6A6F
:02144000FCD7D7
:0E1442001CEE00F02CEE00F0F86A179CDCECBB
:0E14500008F055EC0AF059EC04F0FBD712003E
:02145E00FF0E7F
:10146000E350E84E1200000000D000D000D0E82E7B
:04147000FAD7120095
:0C147400C450036E026AC3500210F36EF5
:0614800003C0F4FF12009E
:0A148600C250020B01E0010E12003B
:06149000C2909D9C1200B9
:05149600848397969588
:05149B00848397969583
:0514A00084839796957E
:0114A5000046
:0414A600C2821200EC
:0214AA0012002E
:0414AC00000000003C
:1014B000000000000000000020A10700A0000000C4
:1014C0000000A10000000000C00000000000A30018
:1014D00000000000A40000000000A50000000000C3
:0C14E000A60000000000A70000000000B3
:020000040030CA
:0100010008F6
:0100020019E4
:010003001EDE
:00000001FF
