:020000040000FA
:06000000FBEF07F0120007
:0A000600020021100000F6000000C7
:100010000100000024100000600000004200000009
:10002000D9CFE6FFE1CFD9FFE652DF6A080EDF5CE9
:1000300019E2DF50E76EFD0EDBCFE9FFFE0EDBCFEE
:10004000EAFFE750E926000EEA22EFCF00F0DF508A
:10005000EA6AA20FE96E000EEA22EF50005C02E1AC
:10006000DF2AE4D7080EDF5C02E1000E1AD0DF5071
:10007000EA6AA20FE96E000EEA22EFCF00F0DF502D
:10008000E76EFD0EDBCFE9FFFE0EDBCFEAFFE750A8
:10009000E926000EEA22EF50005C02E2FF0E01D0DA
:1000A000010EE552E552E7CFD9FF1200D9CFE6FFA6
:1000B000E1CFD9FFE652DF6A080EDF5C13E2DF50C2
:1000C000EA6AA20FE96E000EEA22EF50E66EDF50F8
:1000D000EA6AB60FE96E000EEA22E552E750EF6ECB
:1000E000DF2AEAD7E552E552E7CFD9FF1200D9CF90
:1000F000E6FFE1CFD9FFFE0EDB506F6EE00E6E140F
:10010000006EFE0EDB50005CF9E1E552E7CFD9FF4F
:100110001200D9CFE6FFE1CFD9FF800EE66EE7DF10
:10012000E552FE0EDBCF0EFFE66AE1DFE552E55257
:10013000E7CFD9FF1200D9CFE6FFE1CFD9FF040EF8
:10014000E126FD0EDBCFE9FFFE0EDBCFEAFFEF98E5
:10015000FD0EDBCFE9FFFE0EDBCFEAFF040EE92642
:10016000000EEA220F0EEF140009EF6EFD0EDBCF3A
:10017000E9FFFE0EDBCFEAFF040EE926000EEA22BD
:10018000EF500F0B08080EE2FD0EDBCFE9FFFE0E6D
:10019000DBCFEAFF040EE926000EEA22F00EEF1490
:1001A0000809EF6EFD0EDBCFE9FFFE0EDBCFEAFFA5
:1001B000EE52EF50E00BE838E840006EFD0EDBCF6A
:1001C000E9FFFE0EDBCFEAFF0050070BF36EF80EDF
:1001D000EF14F310EF6EFD0EDBCFE9FFFE0EDBCF69
:1001E000EAFFEE52EF50030BE76E030EE7CFDBFFA3
:1001F000FD0EDBCFE9FFFE0EDBCFEAFFEE52EF5044
:100200001C0B080DF350E66EFD0EDBCFE9FFFE0E72
:10021000DBCFEAFFEE52E552E750EF6E030EDB5004
:100220000809006EFD0EDBCFE9FFFE0EDBCFEAFF13
:10023000EE520050EF1260B6FED7D950010FE96EB2
:10024000DACFEAFF610EEE6E0F0EED6EDF6AFD0E85
:10025000DBCFE9FFFE0EDBCFEAFF040EE926000E3E
:10026000EA22EF500F0B050FDF5C1EE2FD0EDBCF25
:10027000E9FFFE0EDBCFEAFFDF50E924E96E000E56
:10028000EA20EA6EEF50E66E010EDBCFE9FF020EC8
:10029000DBCFEAFFE552E750EF6EDF2A010EDB2AE3
:1002A000020ED5E3DB2AD3D76086040EE15C02E2BE
:1002B000E16AE552E16EE552E7CFD9FF1200D9CFEE
:1002C000E6FFE1CFD9FF0001B18BB18DB19FEE0EFA
:1002D000B26FB369B591B593B595B587FE0EDB04E2
:1002E00020E0AF51B45D3EE1B60EE66E000EE66E64
:1002F00097DEE552E552FF0814E0D8DE0001FE0E5D
:10030000B46FA50E776EB10EE66E000EE66E13DFCB
:10031000E552E552E668FDDEE5520001B081B0939A
:1003200021D0C4DEAAC0B4F0A50E776EB10EE66E81
:10033000000EE66E00DFE552E552800E0001AA15C0
:1003400004E0F80EAA15F80808E1B091AAC0AFF0D1
:10035000AAC0E6FFDEDEE55205D0B083AB6BAC6B26
:10036000AD6BAE6BE552E7CFD9FF1200D9CFE6FFF8
:10037000E1CFD9FFE652DF6A0001C05107E1B0A129
:1003800002D0020E01D0010EDF6E4AD0BE510D0D1B
:10039000F3CFE9FFF4CFEAFFC10EE926000EEA220F
:1003A000EECF00F0EECF01F0EECF02F0EECF03F093
:1003B000EECF04F0EECF05F0EECF06F0EECF07F073
:1003C000EECF08F0EECF09F0EECF0AF0EECF0BF053
:1003D000EFCF0CF0FD0EDBCFE9FFFE0EDBCFEAFF27
:1003E00000C0EEFF01C0EEFF02C0EEFF03C0EEFF53
:1003F00004C0EEFF05C0EEFF06C0EEFF07C0EEFF33
:1004000008C0EEFF09C0EEFF0AC0EEFF0BC0EEFF12
:100410000CC0EEFFBE2B010EBE5D01E3BE6BC0073C
:10042000DF50E552E552E7CFD9FF1200D9CFE6FF02
:10043000E1CFD9FFE652DF6AA3980001B0A102D054
:10044000020E4ED0010ED05D06E2D02BCF2B010E56
:10045000CF5D01E3CF6BFD0EDBCFE9FFFE0EDBCFFF
:10046000EAFFEECF00F0EECF01F0EECF02F0EECFDC
:1004700003F0EECF04F0EECF05F0EECF06F0EECFB6
:1004800007F0EECF08F0EECF09F0EECF0AF0EECF96
:100490000BF0EFCF0CF0CF510D0DF3CFE9FFF4CF00
:1004A000EAFFD10EE926000EEA2200C0EEFF01C0ED
:1004B000EEFF02C0EEFF03C0EEFF04C0EEFF05C07A
:1004C000EEFF06C0EEFF07C0EEFF08C0EEFF09C05A
:1004D000EEFF0AC0EEFF0BC0EEFF0CC0EEFF01D036
:1004E000DF6EDF50E552E552E7CFD9FF1200D9CFDA
:1004F000E6FFE1CFD9FFE6520001010EB06FAB6B12
:10050000AC6BAD6BAE6BCE6BCF69D06BBE6BBF69A6
:10051000C06BFE0EDB500BE00C0EAF6FA96BA86B2F
:10052000A76BA66BA56BA46BA36B320EA26FAFC0BB
:10053000AAF0800EE66EDBDDE552A00E776E0D01AF
:10054000E00EF86F0F01070E186F880E196F1A6B07
:100550001B6B1C6B080E1D6F1E691F6B070E006F57
:10056000880E016F080E096F0A690D6F0E690D0183
:100570005C0EF06FE06BE16BE26B0D0ED46FD56B30
:10058000010E706EBF0E716E870E726EE66AAFDD81
:10059000E552A50E776E030E606E010EE66E8FDEDD
:1005A000E552E552E552E7CFD9FF1200D9CFE6FF79
:1005B000E1CFD9FF020EE126FB0EDB500001AB2795
:1005C000FC0EDB50AC23FD0EDB50AD23FE0EDB50EA
:1005D000AE2320D801D90001B051020B11E0900EDA
:1005E000AB5DD00EAC59030EAD59000EAE5908E309
:1005F000B091B093AAC0AFF0AAC0E6FF8ADDE55281
:10060000020EE15C02E2E16AE552E16EE552E7CFFB
:10061000D9FF1200D9CFE6FFE1CFD9FF040EE126C2
:10062000020EDB6A74AEB1D0070E6F14B009776E9C
:10063000610EDE6E0F0EDD6E030EDB6A050EF36ECD
:10064000030EDBCFF4FFF350F45C17E2DECFE9FFDB
:10065000DDCFEAFFEF50E66E030EDB50EA6AB10F22
:10066000E96E000EEA22E552E750EF6E030EDB2A38
:10067000DF2A010EE3E3DB2AE1D70001B5510F0BBE
:10068000080804E2B591B593B595B587030EDB6A0A
:10069000B5510F0BF36E030EDBCFF4FFF350F45C98
:1006A00017E2DECFE9FFDDCFEAFFEF50E66E030E83
:1006B000DB50EA6AB60FE96E000EEA22E552E75017
:1006C000EF6E030EDB2ADF2A010EE2E3DB2AE0D71E
:1006D000609E749E749EE00EB215E840E840E840CB
:1006E0001F0BE76E030EE7CFDBFFB151070B070BC4
:1006F000200DF3CF00F0030EDBCFE6FFB215E5527D
:10070000E710F310B26FE850EE0A0BE0040A0EE1B6
:10071000B6510CE1EA0EB75D09E1B85107E13FD8E7
:1007200081D7020EE66ECBDDE5527CD7010E0001CB
:10073000C05D06E2C02BBF2B010EBF5D01E3BF6BA6
:10074000BF510D0DF3CFE9FFF4CFEAFFC10EE9264B
:10075000000EEA22B1C0EEFFB2C0EEFFB3C0EEFF62
:10076000B4C0EEFFB5C0EEFFB6C0EEFFB7C0EEFFFF
:10077000B8C0EEFFB9C0EEFFBAC0EEFFBBC0EEFFDF
:10078000BCC0EEFFBDC0EEFF4DD7040EE15C02E23F
:10079000E16AE552E16EE552E7CFD9FF12000001B0
:1007A000B0A103D0FE0EB46F02D0AFC0B4F0B18BD5
:1007B000B18DB19FEE0EB26FB369B591B593B5959A
:1007C000B58774DCA50E776EB10EE66E000EE66E90
:1007D000B2DCE552E5521200D9CFE6FFE1CFD9FFF6
:1007E000020EE126040EDF6E0001D05103E100018C
:1007F000F66B52D0B0B10ED00001F6510EE0F60506
:10080000F76A1C0FF66E100EF7220800F550776E8F
:1008100060A602D0020E41D0F66B0001D051000854
:100820003BE2050E0001F65D37E2F651F76A1C0F58
:10083000F66E100EF7220800F550776E60B629D0DC
:100840000001CE510D0DF3CFE9FFF4CFEAFFD10E39
:10085000E926000EEA22030EE926000EEA22AFC0C6
:10086000EFFFCE510D0DF3CF00F0F4CF01F0D10E1C
:100870000026000E012200C0E6FF01C0E6FF5BDC9F
:10088000E552E5520001CE2B010ECE5D01E3CE6BA9
:10089000D0070001F62BC1D7000E006E020EE15CFE
:1008A00002E2E16AE552E16E0050E552E7CFD9FF7E
:0208B000120034
:0E08B200D9CFE6FFE1CFD9FF020EE126D9EC47
:1008C00006F0CF0EE66EE66A3C0EE66E78EC07F0B8
:1008D000E552E552E552AB8EB896010EE66E77EC26
:1008E00002F0E5520001B0A30BD0050EE66EE66AF9
:1008F000E66AE66AD6EC02F0E552E552E552F1D737
:100900008B800A0EE66EE66AE66AE66AD6EC02F0CC
:10091000E552E552E552E5520001C051000801E3FD
:1009200038D1DE0EE66E000EE66EB6EC01F0E55252
:10093000E552FF0E0001DF5D01E0B2D00001010EC3
:10094000A01901E0ADD0A15101E0AAD0E00E000154
:10095000E05D01E1A5D0DE6ADD6ADECF00F0DDCF2B
:1009600001F0150E005C000E015801E399D0DECFB6
:10097000E9FFDDCFEAFF030EEA02F3CFEAFFE90267
:10098000F3CFE9FFF450EA26600EE926000EEA22D2
:10099000EF50F0082FE100019F512CE1DECFE9FF7D
:1009A000DDCFEAFF030EEA02F3CFEAFFE902F3CF5D
:1009B000E9FFF450EA26600EE926000EEA22010E55
:1009C000E926000EEA22EF6ADECFE9FFDDCFEAFF7B
:1009D000030EEA02F3CFEAFFE902F3CFE9FFF45096
:1009E000EA26600EE926000EEA22020EE926000E33
:1009F000EA22EF6ADECFE9FFDDCFEAFF030EEA026B
:100A0000F3CFEAFFE902F3CFE9FFF450EA26600EE4
:100A1000E926000EEA22EF500001E05D3BE1F00E16
:100A2000E05D03E1E3C09FF007D000019F510001AA
:100A3000E05D02E100019F6BDECFE9FFDDCFEAFF61
:100A4000030EEA02F3CFEAFFE902F3CFE9FFF45025
:100A5000EA26600EE926000EEA22010EE926000EC3
:100A6000EA22E3C0EFFFDECFE9FFDDCFEAFF030EAE
:100A7000EA02F3CFEAFFE902F3CFE9FFF450EA26F6
:100A8000600EE926000EEA22020EE926000EEA2296
:100A9000E4C0EFFFDF2A010E01E25FD7DB2A5DD75A
:100AA000FF0E0001DF5D62E1E00EE05D5FE100014D
:100AB000010EA0195BE1A15159E1A06BA16BDE6AA7
:100AC000DD6ADECF00F0DDCF01F0150E005C000E18
:100AD000015801E321D7DECFE9FFDDCFEAFF030EA6
:100AE000EA02F3CFEAFFE902F3CFE9FFF450EA2686
:100AF000600EE926000EEA22020EE926000EEA2226
:100B0000EF50E66EDECFE9FFDDCFEAFF030EEA022B
:100B1000F3CFEAFFE902F3CFE9FFF450EA26600ED3
:100B2000E926000EEA22010EE926000EEA22EF5025
:100B3000E66EDECFE9FFDDCFEAFF030EEA02F3CF78
:100B4000EAFFE902F3CFE9FFF450EA26600EE92656
:100B5000000EEA22EF50E66EF4EC06F0E552E552A4
:100B6000E552DF2A010EADE3DB2AABD7FF0E000111
:100B7000DF5D01E0D1D6E00EE05D01E0CDD6000101
:100B8000A051A11101E0C8D68B82010EA06FA16B0C
:100B9000C3D60A0EE66EE66AE66AE66AD6EC02F0AC
:0A0BA000E552E552E552E552ACD6ED
:060BAA00D9CFE6FFE1CF08
:100BB000D9FF020EE126FD0EDBCFE9FFFE0EDBCFF3
:100BC000EAFFEF96FD0EDBCFE9FFFE0EDBCFEAFF7B
:100BD0001F0EEF146009EF6EFD0EDBCFE9FFFE0E76
:100BE000DBCFEAFF020EE926000EEA22EF68FD0ED7
:100BF000DBCFE9FFFE0EDBCFEAFF020EE926000E97
:100C0000EA22FC0EDBCFEFFFFD0EDBCFE9FFFE0E8D
:100C1000DBCFEAFF040EE926000EEA22F00EEF1405
:100C20000209EF6EFD0EDBCFE9FFFE0EDBCFEAFF20
:100C3000EE52EF68DE6ADD6ADECF00F0DDCF01F054
:100C4000020E005C000E015826E2FA0EDBCF02F025
:100C5000FB0EDBCF03F0DE500224E96EDD500320F3
:100C6000EA6EEF50E66EFD0EDBCFE9FFFE0EDBCF46
:100C7000EAFF050EE926000EEA22DE50E924E96EBD
:100C8000DD50EA20EA6EE552E750EF6EDF2A010EF2
:100C9000D3E3DB2AD1D7FD0EDBCFE6FFFE0EDBCFA1
:100CA000E6FF16EC02F0E552E55200090CE0050EF5
:100CB000E66EE66AE66AE66AD6EC02F0E552E552CE
:100CC000E552E552E8D7020EE15C02E2E16AE55244
:100CD000E16EE552E7CFD9FF1200D9CFE6FFE1CFB1
:100CE000D9FFFD0EDBCFE9FFFE0EDBCFEAFFEF966B
:100CF000FD0EDBCFE9FFFE0EDBCFEAFF1F0EEF1488
:100D00006009EF6EFD0EDBCFE9FFFE0EDBCFEAFFE1
:100D1000020EE926000EEA22FB0EDBCFEFFFFD0EEE
:100D2000DBCFE9FFFE0EDBCFEAFF040EE926000E63
:100D3000EA22F00EEF140109EF6EFD0EDBCFE9FFA2
:100D4000FE0EDBCFEAFFEE52010EEF6EFD0EDBCFA3
:100D5000E9FFFE0EDBCFEAFF050EE926000EEA22D0
:100D6000F90EDBCFEFFFFD0EDBCFE6FFFE0EDBCF94
:100D7000E6FF16EC02F0E552E55200090CE0050E24
:100D8000E66EE66AE66AE66AD6EC02F0E552E552FD
:100D9000E552E552E8D7E552E7CFD9FF1200D38CF0
:100DA000D38AD3889B8C0A0EE66EBDEC07F0E55221
:100DB00012000F0EC16E020E926E080E936E800E20
:100DC000946E8B6ECFEF06F0D9CFE6FFE1CFD9FF5F
:100DD000ACA2FED7FD0EDBCFE6FFD4EC07F0E55268
:100DE000E552E7CFD9FF1200D9CFE6FFE1CFD9FF17
:100DF000FF0EE66EE66AE8DFE552E552FE0EDBCF57
:100E000000F0016A00BE016800C0E6FF01C0E6FF15
:100E1000DBDFE552E552FD0EDBCF00F0016A00BEDC
:100E2000016800C0E6FF01C0E6FFCEDFE552E552F3
:100E3000FC0EDBCF00F0016A00BE016800C0E6FFD7
:100E400001C0E6FFC1DFE552E552E552E7CFD9FF29
:020E500012008E
:0E0E5200060EF66E000EF76E000EF86E000132
:100E60000900F550F06F0900F550F16F03E1F067EC
:100E700001D03DD00900F550EB6F0900F550EC6F43
:100E80000900F550ED6F09000900F550E96E090001
:100E9000F550EA6E090009000900F550EE6F0900EF
:100EA000F550EF6F09000900F6CFF2F0F7CFF3F03D
:100EB000F8CFF4F0EBC0F6FFECC0F7FFEDC0F8FFA1
:100EC0000001EE5302E1EF5307E00900F550EE6E2A
:100ED000EE07F8E2EF07F9D7F2C0F6FFF3C0F7FF2D
:100EE000F4C0F8FF0001F007000EF15BBFD712005D
:100EF000D9CFE6FFDACFE6FFE1CFD9FFE2CFDAFFC5
:100F0000AC6AAB6AFD0EDBB0AC88DBA202D0AC8C65
:100F1000AB8CDBB4AC8EDBA602D0AB8801D0AB8A45
:100F2000DBB8AC849E98DBBAAB86DBAC02D09D8A82
:100F300001D09D9A9E9ADBAE02D09D8801D09D98EB
:100F4000FB0EDB50AF6EFB0EFC0EDBCF01F001C0E1
:100F500000F0016A0050B06EAC8AAB8E949C948E07
:100F6000AC50100B04E0AC50800B01E1948CE552C6
:0A0F7000E5CFDAFFE7CFD9FF12004A
:060F7A00FF0EE350106EB3
:100F8000EF0E01D0F30EE76EE72EC4EF07F00C0E64
:100F90000F6EE76AE72ECAEF07F00F2EC9EF07F0D2
:080FA000102EC2EF07F0120051
:080FA800D9CFE6FFDACFE6FF26
:100FB000E1CFD9FFE2CFDAFFACAC04D0AC900001B6
:100FC000F5B3AC80FD0EDB50AD6EE552E5CFDAFF38
:060FD000E7CFD9FF12007B
:0A0FD600000EF36E00EE00F00D0EA9
:100FE00001D81200EA6002D0EE6AFCD7F350E96043
:060FF0001200EE6AFCD7BE
:0A0FF6001CEE00F02CEE00F0F86A8B
:101000000E9C29EC07F011EC08F059EC04F0FBD72A
:021010001200CC
:05101200848397969510
:0510170084839796950B
:04101C00848397969C
:01102000953A
:0110210000CE
:021022001200BA
:0C102400A00000A10000A20000A300003A
:10103000A40000A50000A60000A70000B00000B1B9
:101040000000B20000B30000B40000B50000B6001C
:1010500000C00000C10000C20000C30000C40000C6
:06106000F000000000009A
:020000040030CA
:0100010008F6
:0100020019E4
:010003001EDE
:00000001FF
