:020000040000FA
:0600000054EF0BF01200AA
:0A00060002000B170000EF000000DD
:10001000010000001217000060000000480000000E
:10002000D9CFE6FFE1CFD9FF120EE126100EDB6A31
:10003000110EDB6ACBEC09F0010EE66EE5EC06F082
:10004000E552ABDB928C928E0001B6A30CD0050E6C
:10005000E66EE66AE66AE66A44EC07F0E552E552C7
:10006000E552E552F1D78B928B800A0EE66EE66A76
:10007000E66AE66A44EC07F0E552E552E552E552DD
:100080000001C651000824E2000EE66E010EE66E85
:1000900024EC06F0E552E552FF0E0101015D08E196
:1000A000E00E025D05E1010E0001686F696BE8D7A3
:1000B0000105E6E10305E4E18B8205C1E6FF000EE0
:1000C000E66E010EE66E8ADBE552E552E552D8D7C0
:1000D0000001010E6819C7E16951C5E1686B696BE0
:1000E000C290C294C296C298C29AC280050EE66EB1
:1000F00062EC0BF0E552020EDB6A030EDB6A040EC3
:10010000DB6A050EDB6A060EDB6A070EDB6A060E8B
:10011000DBCF10F0070EDBCF11F0D890115004E6C2
:100120000A0E105C000E115825E286EC0BF076ECFE
:100130000BF00009FCE16DEC0BF0F3CF10F0F4CF05
:1001400011F0126A136A11AE02D012681368D95006
:10015000020FE96EDACFEAFF1050EE261150EE22C0
:100160001250EE221350EE22060EDB2A070ECFE3CA
:10017000DB2ACDD7020EDBCF10F0030EDBCF11F060
:10018000040EDBCF12F0050EDBCF13F0080ED89073
:100190001332123211321032E806F9E1100E10C09B
:1001A000DBFF020EDBCF10F0030EDBCF11F0040EED
:1001B000DBCF12F0050EDBCF13F0080E1F0B07E0AC
:1001C000D8901036113612361336E806F9E1080ECB
:1001D000D8901332123211321032E806F9E1110EC2
:1001E00010C0DBFF100EDBCF7AF000017B6B7ABF13
:1001F0007B69110EDBCF7CF07D6B7CBF7D69C2908B
:10020000C284C296C298C29AC280050EE66E62ECA3
:100210000BF0E552020EDB6A030EDB6A040EDB6AAA
:10022000050EDB6A060EDB6A070EDB6A060EDBCF05
:1002300010F0070EDBCF11F0D890115004E60A0E33
:10024000105C000E115825E286EC0BF076EC0BF0FA
:100250000009FCE16DEC0BF0F3CF10F0F4CF11F0DE
:10026000126A136A11AE02D012681368D950020FD5
:10027000E96EDACFEAFF1050EE261150EE2212504E
:10028000EE221350EE22060EDB2A070ECFE3DB2A06
:10029000CDD7D950020FE96EDACFEAFF080EEECFC4
:1002A000DBFF090EEECFDBFF0A0EEECFDBFF0B0EFE
:1002B000EECFDBFFD950080FE96EDACFEAFFD89016
:1002C000030EEB50000A08E6000EEE5C000EEE583E
:1002D000000EEE58000EEE5809E2020EDB6A030E25
:1002E000DB6A040EDB6A050EDB6A11D0D950080FF9
:1002F000E96EDACFEAFF020EEECFDBFF030EEECFA0
:10030000DBFF040EEECFDBFF050EEECFDBFF020EB0
:10031000DBCF10F0030EDBCF11F0040EDBCF12F0B9
:10032000050EDBCF13F0080ED890133212321132C3
:100330001032E806F9E1100E10C0DBFF020EDBCF31
:1003400010F0030EDBCF11F0040EDBCF12F0050E20
:10035000DBCF13F0080E1F0B07E0D89010361136D4
:1003600012361336E806F9E1080ED890133212322D
:1003700011321032E806F9E1110E10C0DBFF100E49
:10038000DBCF86F00001876B86BF8769110EDBCF5C
:1003900088F0896B88BF8969C290C294C286C2986E
:1003A000C29AC280050EE66E62EC0BF0E552020EB8
:1003B000DB6A030EDB6A040EDB6A050EDB6A060EDF
:1003C000DB6A070EDB6A060EDBCF10F0070EDBCF11
:1003D00011F0D890115004E60A0E105C000E11586E
:1003E00025E286EC0BF076EC0BF00009FCE16DECFD
:1003F0000BF0F3CF10F0F4CF11F0126A136A11AEC4
:1004000002D012681368D950020FE96EDACFEAFF02
:100410001050EE261150EE221250EE221350EE2212
:10042000060EDB2A070ECFE3DB2ACDD7D950020F09
:10043000E96EDACFEAFF080EEECFDBFF090EEECF52
:10044000DBFF0A0EEECFDBFF0B0EEECFDBFFD9504A
:10045000080FE96EDACFEAFFD890030EEB50000ADE
:1004600008E6000EEE5C000EEE58000EEE58000E90
:10047000EE5809E2020EDB6A030EDB6A040EDB6A49
:10048000050EDB6A11D0D950080FE96EDACFEAFF0A
:10049000020EEECFDBFF030EEECFDBFF040EEECF3E
:1004A000DBFF050EEECFDBFF020EDBCF10F0030EFD
:1004B000DBCF11F0040EDBCF12F0050EDBCF13F013
:1004C000080ED8901332123211321032E806F9E1D8
:1004D000100E10C0DBFF020EDBCF10F0030EDBCFDF
:1004E00011F0040EDBCF12F0050EDBCF13F0080E77
:1004F0001F0B07E0D8901036113612361336E80677
:10050000F9E1080ED8901332123211321032E80697
:10051000F9E1110E10C0DBFF100EDBCF8CF00001F3
:100520008D6B8CBF8D69110EDBCF8EF08F6B8EBF04
:100530008F69060ED56ED76AD66AC290C284C2860B
:10054000C298C29AC280050EE66E62EC0BF0E552CC
:10055000020EDB6A030EDB6A040EDB6A050EDB6A41
:10056000060EDB6A070EDB6A060EDBCF10F0070E05
:10057000DBCF11F0D890115004E60A0E105C000E8B
:10058000115825E286EC0BF076EC0BF00009FCE14B
:100590006DEC0BF0F3CF10F0F4CF11F0126A136A88
:1005A00011AE02D012681368D950020FE96EDACF8B
:1005B000EAFF1050EE261150EE221250EE22135098
:1005C000EE22060EDB2A070ECFE3DB2ACDD7020E82
:1005D000DBCF06F0030EDBCF07F0040EDBCF08F015
:1005E000050EDBCF09F00A0E0B6E0C6A0D6A0E6A5F
:1005F0006AEC0AF0020E06C0DBFF030E07C0DBFF49
:10060000040E08C0DBFF050E09C0DBFFD950020F46
:10061000E96EDACFEAFF020EEE5E000EEE5AEE5AF7
:10062000EE5AD950020FE96EDACFEAFFD890030EE6
:10063000EB50000A08E6030EEE5C000EEE58000ECA
:10064000EE58000EEE5808E2020EDB6A030EDB6A7B
:10065000040EDB6A050EDB6A020EDBCF10F0030E20
:10066000DBCF11F0040EDBCF12F0050EDBCF13F061
:10067000080ED8901332123211321032E806F9E126
:1006800010C092F011C093F0020EDBCF10F0030EF9
:10069000DBCF11F0040EDBCF12F0050EDBCF13F031
:1006A000080E1F0B07E0D89010361136123613369D
:1006B000E806F9E1080ED8901332123211321032E6
:1006C000E806F9E110C094F011C095F080AE05D0B5
:1006D00000019E699F6BA06904D000019E6B9F6B17
:1006E000A06BA16B8050400B01E0010EE66ED9506B
:1006F0000C0FE96EDACFEAFFE552E750EE6EED6AD5
:10070000D9500C0FE96EDACFEAFF010EEE1806E1C0
:10071000ED5004E1986B996B9A6B03D09869996BD3
:100720009A699B6B893504E288510008000E89554F
:100730001BE3873508E286510008000E875503E267
:100740008851891111E08F3504E28E510008000EA6
:100750008F550AE38D350CE28C510008000E8D5543
:1007600007E28E518F1104E18069816B826903D0A9
:10077000806B816B826B836B1D0EE66E010EE66EE5
:10078000E10EE66E000EE66E010EE66EC7EC08F0B6
:10079000106E050EE15E105066D4C46AC36AC29042
:1007A000C294C296C298C29AC19AC198C180C182AD
:1007B000C194C186C08EC086C098C09AC090C082C5
:1007C000C0849280928292849286928C928EC28011
:1007D000050EE66E62EC0BF0E5521200D9CFE6FF93
:1007E000E1CFD9FF120EE126080EDB6A090EDB6AA3
:1007F000080EDBCF10F0090EDBCF11F0080E105CF5
:10080000000E115871E2FC0EDB50106E116A080EDA
:10081000DBCFE9FF090EDBCFEAFF060EEA02F3CFDA
:10082000EAFFE902F3CFE9FFF450EA26780EE92661
:10083000000EEA22EECF12F0EFCF13F01250101894
:100840004CE11350111849E1080EDBCFE9FF090E06
:10085000DBCFEAFF060EEA02F3CFEAFFE902F3CFAD
:10086000E9FFF450EA26780EE926000EEA22020E8D
:10087000E926000EEA220A0EEFCFDBFF080EDBCFDF
:10088000E9FF090EDBCFEAFF060EEA02F3CFEAFF2B
:10089000E902F3CFE9FFF450EA26780EE926000ECC
:1008A000EA22040EE926000EEA220B0EEFCFDBFF50
:1008B000D9500A0FE66E000EDA20E66EFC0EDBCF92
:1008C000E6FFFD0EDBCFE6FFFE0EDBCFE6FFC7EC5B
:1008D00008F0106E050EE15E1050080EDB2A090EBE
:1008E00001E286D7DB2A84D7120EE15C02E2E16ADC
:0C08F000E552E16EE552E7CFD9FF12009F
:0408FC00D9CFE6FF6B
:10090000E1CFD9FFE652DF6A080EDF5C19E2DF5063
:10091000E76EFD0EDBCFE9FFFE0EDBCFEAFFE7500F
:10092000E926000EEA22EFCF10F0DF50EA6AA80FA6
:10093000E96E000EEA22EF50105C02E1DF2AE4D7F4
:10094000080EDF5C02E1000E1AD0DF50EA6AA80F41
:10095000E96E000EEA22EFCF10F0DF50E76EFD0ED9
:10096000DBCFE9FFFE0EDBCFEAFFE750E926000E02
:10097000EA22EF50105C02E2FF0E01D0010EE552B8
:10098000E552E7CFD9FF1200D9CFE6FFE1CFD9FF7B
:10099000E652DF6A080EDF5C13E2DF50EA6AA80F56
:1009A000E96E000EEA22EF50E66EDF50EA6ABC0FF5
:1009B000E96E000EEA22E552E750EF6EDF2AEAD731
:1009C000E552E552E7CFD9FF1200D9CFE6FFE1CFDC
:1009D000D9FFFE0EDB506F6EE00E6E14106EFE0E31
:1009E000DB50105CF9E1E552E7CFD9FF1200D9CF17
:1009F000E6FFE1CFD9FF800EE66EE7DFE552FE0E9F
:100A0000DBCF0EFFE66AE1DFE552E552E7CFD9FF23
:100A10001200D9CFE6FFE1CFD9FF040EE126FD0E8B
:100A2000DBCFE9FFFE0EDBCFEAFFEF98FD0EDBCF59
:100A3000E9FFFE0EDBCFEAFF040EE926000EEA22F4
:100A40000F0EEF140009EF6EFD0EDBCFE9FFFE0E77
:100A5000DBCFEAFF040EE926000EEA22EF500F0B6F
:100A600008080EE2FD0EDBCFE9FFFE0EDBCFEAFF4A
:100A7000040EE926000EEA22F00EEF140809EF6ECC
:100A8000FD0EDBCFE9FFFE0EDBCFEAFFEE52EF50AB
:100A9000E00BE838E840106EFD0EDBCFE9FFFE0EFC
:100AA000DBCFEAFF1050070BF36EF80EEF14F310D4
:100AB000EF6EFD0EDBCFE9FFFE0EDBCFEAFFEE525D
:100AC000EF50030BE76E030EE7CFDBFFFD0EDBCF2E
:100AD000E9FFFE0EDBCFEAFFEE52EF501C0B080DD4
:100AE000F350E66EFD0EDBCFE9FFFE0EDBCFEAFF33
:100AF000EE52E552E750EF6E030EDB500809106E20
:100B0000FD0EDBCFE9FFFE0EDBCFEAFFEE52105009
:100B1000EF1260B6FED7D950010FE96EDACFEAFFC7
:100B2000610EEE6E0F0EED6EDF6AFD0EDBCFE9FF9C
:100B3000FE0EDBCFEAFF040EE926000EEA22EF509C
:100B40000F0B050FDF5C1EE2FD0EDBCFE9FFFE0E93
:100B5000DBCFEAFFDF50E924E96E000EEA20EA6EFF
:100B6000EF50E66E010EDBCFE9FF020EDBCFEAFFAE
:100B7000E552E750EF6EDF2A010EDB2A020ED5E3C5
:100B8000DB2AD3D76086040EE15C02E2E16AE5521B
:100B9000E16EE552E7CFD9FF1200D9CFE6FFE1CFF2
:100BA000D9FF0001B78BB78DB79FEE0EB86FB9694B
:100BB000BB91BB93BB95BB87FE0EDB0420E0B55118
:100BC000BA5D3EE1BC0EE66E000EE66E97DEE552C3
:100BD000E552FF0814E0D8DE0001FE0EBA6FA50E44
:100BE000776EB70EE66E000EE66E13DFE552E55245
:100BF000E668FDDEE5520001B681B69321D0C4DE81
:100C0000B0C0BAF0A50E776EB70EE66E000EE66EB7
:100C100000DFE552E552800E0001B01504E0F80E49
:100C2000B015F80808E1B691B0C0B5F0B0C0E6FF65
:100C3000DEDEE55205D0B683B16BB26BB36BB46B3D
:100C4000E552E7CFD9FF1200D9CFE6FFE1CFD9FFB8
:100C5000E652DF6A0001C65107E1B6A102D0020EDA
:100C600001D0010EDF6E4AD0C4510D0DF3CFE9FF64
:100C7000F4CFEAFFC70EE926000EEA22EECF10F00D
:100C8000EECF11F0EECF12F0EECF13F0EECF14F066
:100C9000EECF15F0EECF16F0EECF17F0EECF18F046
:100CA000EECF19F0EECF1AF0EECF1BF0EFCF1CF025
:100CB000FD0EDBCFE9FFFE0EDBCFEAFF10C0EEFF3B
:100CC00011C0EEFF12C0EEFF13C0EEFF14C0EEFF26
:100CD00015C0EEFF16C0EEFF17C0EEFF18C0EEFF06
:100CE00019C0EEFF1AC0EEFF1BC0EEFF1CC0EEFFE6
:100CF000C42B010EC45D01E3C46BC607DF50E5528F
:100D0000E552E7CFD9FF1200D9CFE6FFE1CFD9FFF7
:100D1000E652DF6AA3980001B6A102D0020E4ED0BF
:100D2000010ED65D06E2D62BD52B010ED55D01E373
:100D3000D56BFD0EDBCFE9FFFE0EDBCFEAFFEECF7A
:100D400010F0EECF11F0EECF12F0EECF13F0EECFA9
:100D500014F0EECF15F0EECF16F0EECF17F0EECF89
:100D600018F0EECF19F0EECF1AF0EECF1BF0EFCF68
:100D70001CF0D5510D0DF3CFE9FFF4CFEAFFD70EEC
:100D8000E926000EEA2210C0EEFF11C0EEFF12C0ED
:100D9000EEFF13C0EEFF14C0EEFF15C0EEFF16C04D
:100DA000EEFF17C0EEFF18C0EEFF19C0EEFF1AC02D
:100DB000EEFF1BC0EEFF1CC0EEFF01D0DF6EDF5068
:100DC000E552E552E7CFD9FF1200D9CFE6FFE1CFD8
:100DD000D9FFE6520001010EB66FB16BB26BB36B77
:100DE000B46BD46BD569D66BC46BC569C66BFE0E8C
:100DF000DB500BE0030EB56FAF6BAE6BAD6BAC6B46
:100E0000AB6BAA6BA96B320EA86FB5C0B0F0800EA9
:100E1000E66EDBDDE552A00E776E0D01E00EF86F99
:100E20000F01070E186F880E196F1A6B1B6B1C6B66
:100E3000080E1D6F1E691F6B070E006F880E016F75
:100E4000080E096F0A690D6F0E690D015C0EF06FD7
:100E5000E06BE16BE26B0D0ED46FD56B010E706E23
:100E6000BF0E716E870E726EE66AAFDDE552A50E9B
:100E7000776E030E606E010EE66E8FDEE552E55270
:100E8000E552E7CFD9FF1200D9CFE6FFE1CFD9FF76
:100E9000020EE126FB0EDB500001B127FC0EDB50F9
:100EA000B223FD0EDB50B323FE0EDB50B42320D85B
:100EB00001D90001B651020B11E0900EB15DD00EC8
:100EC000B259030EB359000EB45908E3B691B69364
:100ED000B0C0B5F0B0C0E6FF8ADDE552020EE15CBD
:100EE00002E2E16AE552E16EE552E7CFD9FF120076
:100EF000D9CFE6FFE1CFD9FF040EE126020EDB6A6F
:100F000074AEB1D0070E6F14B009776E610EDE6E4D
:100F10000F0EDD6E030EDB6A050EF36E030EDBCFE4
:100F2000F4FFF350F45C17E2DECFE9FFDDCFEAFF18
:100F3000EF50E66E030EDB50EA6AB70FE96E000E63
:100F4000EA22E552E750EF6E030EDB2ADF2A010E9C
:100F5000E3E3DB2AE1D70001BB510F0B080804E2F1
:100F6000BB91BB93BB95BB87030EDB6ABB510F0BD9
:100F7000F36E030EDBCFF4FFF350F45C17E2DECF29
:100F8000E9FFDDCFEAFFEF50E66E030EDB50EA6AC1
:100F9000BC0FE96E000EEA22E552E750EF6E030E39
:100FA000DB2ADF2A010EE2E3DB2AE0D7609E749E93
:100FB000749EE00EB815E840E840E8401F0BE76E6D
:100FC000030EE7CFDBFFB751070B070B200DF3CF65
:100FD00010F0030EDBCFE6FFB815E552E710F31073
:100FE000B86FE850EE0A0BE0040A0EE1BC510CE1C8
:100FF000EA0EBD5D09E1BE5107E13FD881D7020E7F
:10100000E66ECBDDE5527CD7010E0001C65D06E23F
:10101000C62BC52B010EC55D01E3C56BC5510D0D7A
:10102000F3CFE9FFF4CFEAFFC70EE926000EEA226C
:10103000B7C0EEFFB8C0EEFFB9C0EEFFBAC0EEFF1A
:10104000BBC0EEFFBCC0EEFFBDC0EEFFBEC0EEFFFA
:10105000BFC0EEFFC0C0EEFFC1C0EEFFC2C0EEFFDA
:10106000C3C0EEFF4DD7040EE15C02E2E16AE55237
:10107000E16EE552E7CFD9FF12000001B6A103D01F
:10108000FE0EBA6F02D0B5C0BAF0B78BB78DB79F5E
:10109000EE0EB86FB969BB91BB93BB95BB8774DC8F
:1010A000A50E776EB70EE66E000EE66EB2DCE55268
:1010B000E5521200D9CFE6FFE1CFD9FF020EE126BB
:1010C000040EDF6E0001D65103E10001EF6B52D038
:1010D000B6B10ED00001EF510EE0EF05F76A060F32
:1010E000F66E170EF7220800F550776E60A602D054
:1010F000020E41D0EF6B0001D65100083BE2050E15
:101100000001EF5D37E2EF51F76A060FF66E170E3A
:10111000F7220800F550776E60B629D00001D4514F
:101120000D0DF3CFE9FFF4CFEAFFD70EE926000E4D
:10113000EA22030EE926000EEA22B5C0EFFFD451E1
:101140000D0DF3CF10F0F4CF11F0D70E1026000ED6
:10115000112210C0E6FF11C0E6FF5BDCE552E5524C
:101160000001D42B010ED45D01E3D46BD60700013E
:10117000EF2BC1D7000E106E020EE15C02E2E16AB5
:0E118000E552E16E1050E552E7CFD9FF1200A4
:02118E00D9CFB7
:10119000E6FFE1CFD9FF020EE126FD0EDBCFE9FF2E
:1011A000FE0EDBCFEAFFEF96FD0EDBCFE9FFFE0E72
:1011B000DBCFEAFF1F0EEF146009EF6EFD0EDBCFF1
:1011C000E9FFFE0EDBCFEAFF020EE926000EEA225F
:1011D000EF68FD0EDBCFE9FFFE0EDBCFEAFF020E6C
:1011E000E926000EEA22FC0EDBCFEFFFFD0EDBCF7F
:1011F000E9FFFE0EDBCFEAFF040EE926000EEA222D
:10120000F00EEF140209EF6EFD0EDBCFE9FFFE0ECC
:10121000DBCFEAFFEE52EF68DE6ADD6ADECF10F068
:10122000DDCF11F0020E105C000E115826E2FA0E0E
:10123000DBCF12F0FB0EDBCF13F0DE501224E96E91
:10124000DD501320EA6EEF50E66EFD0EDBCFE9FFB6
:10125000FE0EDBCFEAFF050EE926000EEA22DE5085
:10126000E924E96EDD50EA20EA6EE552E750EF6EC0
:10127000DF2A010ED3E3DB2AD1D7FD0EDBCFE6FF59
:10128000FE0EDBCFE6FF84EC06F0E552E5520009E6
:101290000CE0050EE66EE66AE66AE66A44EC07F0E4
:1012A000E552E552E552E552E8D7020EE15C02E272
:1012B000E16AE552E16EE552E7CFD9FF1200D9CFDE
:1012C000E6FFE1CFD9FFFD0EDBCFE9FFFE0EDBCF5E
:1012D000EAFFEF96FD0EDBCFE9FFFE0EDBCFEAFF64
:1012E0001F0EEF146009EF6EFD0EDBCFE9FFFE0E5F
:1012F000DBCFEAFF020EE926000EEA22FB0EDBCF6F
:10130000EFFFFD0EDBCFE9FFFE0EDBCFEAFF040EA1
:10131000E926000EEA22F00EEF140109EF6EFD0E31
:10132000DBCFE9FFFE0EDBCFEAFFEE52010EEF6EE0
:10133000FD0EDBCFE9FFFE0EDBCFEAFF050EE9264F
:10134000000EEA22F90EDBCFEFFFFD0EDBCFE6FF4A
:10135000FE0EDBCFE6FF84EC06F0E552E552000915
:101360000CE0050EE66EE66AE66AE66A44EC07F013
:10137000E552E552E552E552E8D7E552E7CFD9FF0D
:101380001200D38CD38AD3889B8C0A0EE66EF3ECC2
:101390000AF0E55212000F0EC16E020E926E080E98
:1013A000936E800E946E8B6EC1EF09F0D9CFE6FF7D
:1013B000E1CFD9FFACA2FED7FD0EDBCFE6FF0AECF2
:1013C0000BF0E552E552E7CFD9FF1200D9CFE6FF87
:1013D000E1CFD9FFFF0EE66EE66AE8DFE552E5529F
:1013E000FE0EDBCF10F0116A10BE116810C0E6FFD0
:1013F00011C0E6FFDBDFE552E552FD0EDBCF10F05A
:10140000116A10BE116810C0E6FF11C0E6FFCEDF02
:10141000E552E552FC0EDBCF10F0116A10BE1168E8
:1014200010C0E6FF11C0E6FFC1DFE552E552E5520C
:06143000E7CFD9FF120016
:0A143600060EF66E000EF76E000EB3
:10144000F86E00010900F550E96F0900F550EA6FE8
:1014500003E1E96701D03DD00900F550E46F0900D0
:10146000F550E56F0900F550E66F09000900F550E9
:10147000E96E0900F550EA6E090009000900F5500F
:10148000E76F0900F550E86F09000900F6CFEBF0AF
:10149000F7CFECF0F8CFEDF0E4C0F6FFE5C0F7FFD2
:1014A000E6C0F8FF0001E75302E1E85307E0090056
:1014B000F550EE6EE707F8E2E807F9D7EBC0F6FF64
:1014C000ECC0F7FFEDC0F8FF0001E907000EEA5B92
:0414D000BFD7120070
:0C14D400006AE86A0EAE77EF0AF00B6CBD
:1014E0000C1E0D1E0E1E0C220D220E22001E09AE19
:1014F00082EF0AF0066C071E081E091E072208224A
:101500000922001ECFEC0AF009BE99EF0AF000AEE6
:10151000000C066C071E081E091EE86A0722082236
:101520000922026C031E041E051E0322042205224A
:0C153000000C00BE89EF0AF00188FF0CDF
:04153C00D9CFE6FF1E
:10154000E1CFD9FFC26AC06AFD0EDB407F0B3C0BC6
:10155000C26EFD0EDB38F00B300B106EFC0EDB5054
:101560000F0B1010C16EFE0EDB50040DF350380B44
:10157000116EFE0EDB380F0B070B106EFE0EDB50EC
:10158000800B10101110C06EFD0EDBAE03D09E9CC0
:0E1590009D8CF28CC280E552E7CFD9FF12008D
:02159E00056ADC
:1015A000046A036A026A200EE76ED8900636073690
:1015B0000836093602360336043605360B50025C0F
:1015C0000C5003580D5004580E50055809E30B50A9
:1015D000025E0C50035A0D50045A0E50055A062A4A
:0615E000E72EE4D7120023
:0A15E600FF0EE3501E6EEF0E01D061
:1015F000F30EE76EE72EFAEF0AF00C0E1D6EE76AA7
:10160000E72E00EF0BF01D2EFFEF0AF01E2EF8EF75
:041610000AF01200CA
:0C161400D9CFE6FFDACFE6FFE1CFD9FF27
:10162000E2CFDAFFACAC04D0AC900001EEB3AC80FA
:10163000FD0EDB50AD6EE552E5CFDAFFE7CFD9FF07
:02164000120096
:0E164200D9CFE6FFE1CFD9FFFE0EDB407F0BD4
:101650003C0B106EC30EC2141010C26EC282E55253
:06166000E7CFD9FF1200E4
:0A166600D9CFE6FFE1CFD9FFC30E94
:10167000C214106EFE0EDB407F0B3C0B1010C26ECE
:08168000E552E7CFD9FF12008B
:08168800000EF36E00EE00F00D
:101690000D0E01D81200EA6002D0EE6AFCD7F350BA
:0816A000E9601200EE6AFCD7BC
:0816A8001CEE00F02CEE00F036
:1016B000F86A019C1BEC0AF088EC0BF010EC00F0CF
:0416C000FBD7120042
:0C16C400FF0EE350E84E1200000000D0C2
:0A16D00000D000D0E82EFAD7120077
:0616DA00C450136E126AF9
:0C16E000C3501210F36E13C0F4FF120090
:0416EC00C250020BDB
:0616F00001E0010E1200F2
:0616F600C2909D9C120051
:0416FC0084839796B6
:011700009553
:0517010084839796951A
:05170600848397969515
:01170B0000DD
:04170C00C282120083
:021710001200C5
:0E1712000000000000000000000000000000C9
:1017200000000000000000000000B0000000000009
:10173000B10000000000B20000000000B300000093
:101740000000B40000000000B50000000000B6007A
:0A175000000000000000000000008F
:020000040030CA
:0100010008F6
:0100020019E4
:010003001EDE
:00000001FF
