:020000040000FA
:06000000D5EF0CF0120028
:0A00060002000D1A0000E7000000E0
:1000100001000000141A00009C00000022000000F3
:10002000D9CFE6FFE1CFD9FF0C0EE126080EDB6A3F
:10003000090EDB6A48EC0BF0010EE66EC7EC06F029
:10004000E55241EC04F000016EA30CD0050EE66E03
:10005000E66AE66AE66A26EC07F0E552E552E55202
:10006000E552F1D78B928B800A0EE66EE66AE66A5D
:10007000E66A26EC07F0E552E552E552E55200014A
:100080007E51000824E2BE0EE66E000EE66E06EC1F
:1000900006F0E552E552FF0E0001BF5D08E1E00EFB
:1000A000C05D05E1010E0001A46FA56BE8D7BF0597
:1000B000E6E1C105E4E18B82C3C0E6FFBE0EE66E59
:1000C000000EE66E4EDBE552E552E552D8D7000150
:1000D000010EA419C7E1A551C5E1A46BA56BC2909F
:1000E000C294C286C298C29AC2800A0EE66EE3EC3F
:1000F0000CF0E552DE6ADE6ADE6ADD6ADD52DD5250
:100100000A0EDB6A0B0EDB6A0A0EDBCF14F00B0E55
:10011000DBCF15F0D890155004E60A0E145C000EE3
:10012000155822E207EC0DF0F7EC0CF00009FCE1A9
:10013000EEEC0CF0F3CF14F0F4CF15F0166A176A5A
:1001400015AE02D0166817681450DE261550DE2250
:100150001650DE221750DD22DD52DD520A0EDB2A58
:100160000B0ED2E3DB2AD0D7D9CFE9FFDACFEAFFF3
:10017000EECF06F0EECF07F0EECF08F0EFCF09F0AC
:100180000A0E0B6E0C6A0D6A0E6A5BEC09F0040E27
:1001900006C0DBFF050E07C0DBFF060E08C0DBFF55
:1001A000070E09C0DBFF040EDBCF14F0050EDBCF1A
:1001B00015F0060EDBCF16F0070EDBCF17F0080E9A
:1001C000D8901732163215321432E806F9E1080ECB
:1001D00014C0DBFF040EDBCF14F0050EDBCF15F0EF
:1001E000060EDBCF16F0070EDBCF17F0080E1F0B45
:1001F00007E0D8901436153616361736E806F9E1BA
:10020000080ED8901732163215321432E806F9E18A
:10021000090E14C0DBFF080EDBCFBAF00001BB6B88
:10022000BABFBB69090EDBCFBCF0BD6BBCBFBD69FB
:10023000C290C284C296C298C29AC2800A0EE66E6A
:10024000E3EC0CF0E552DE6ADE6ADE6ADD6ADD525E
:10025000DD520A0EDB6A0B0EDB6A0A0EDBCF14F0EE
:100260000B0EDBCF15F0D890155004E60A0E145C87
:10027000000E155822E207EC0DF0F7EC0CF0000927
:10028000FCE1EEEC0CF0F3CF14F0F4CF15F0166AAD
:10029000176A15AE02D0166817681450DE2615507E
:1002A000DE221650DE221750DD22DD52DD520A0E0C
:1002B000DB2A0B0ED2E3DB2AD0D7D9CFE9FFDACF86
:1002C000EAFFEECF14F0EECF15F0EECF16F0EFCF41
:1002D00017F0080ED8901732163215321432E8068D
:1002E000F9E1080E14C0DBFFD9CFE9FFDACFEAFF4E
:1002F000EECF14F0EECF15F0EECF16F0EFCF17F0F3
:100300001F0B07E0D8901436153616361736E80658
:10031000F9E1080ED8901732163215321432E80679
:10032000F9E1090E14C0DBFF0001AE6BAF6BD9CF52
:10033000E9FFDACFEAFFEECF06F0EECF07F0EECF1F
:1003400008F0EFCF09F07C0E065E060E075A000E8D
:10035000085A095AE80E0B6E010E0C6E0D6A0E6AF1
:10036000E7EC0BF002C006F003C007F004C008F091
:1003700005C009F00B6A040E0C6E0D6A0E6A5BEC88
:1003800009F0040E06C0DBFF050E07C0DBFF060EFA
:1003900008C0DBFF070E09C0DBFF660E146E156E8A
:1003A000520E166E420E176E040EDBCF06F0050ECF
:1003B000DBCF07F0060EDBCF08F0070EDBCF09F02E
:1003C0000A0E0B6E0C6A0D6A0E6A5BEC09F0ABEC60
:1003D00008F007C018F008C019F009C01AF00AC0E8
:1003E0001BF007C00CF008C00DF009C00EF00AC0E9
:1003F0000FF014C007F015C008F016C009F017C0C0
:100400000AF0C5EC08F08FEC09F008C0B0F009C0A4
:10041000B1F0C290C294C296C298C29AC2800A0E2B
:10042000E66EE3EC0CF0E552DE6ADE6ADE6ADD6A57
:10043000DD52DD520A0EDB6A0B0EDB6A0A0EDBCFE1
:1004400014F00B0EDBCF15F0D890155004E60A0E11
:10045000145C000E155822E207EC0DF0F7EC0CF0DE
:100460000009FCE1EEEC0CF0F3CF14F0F4CF15F042
:10047000166A176A15AE02D0166817681450DE2681
:100480001550DE221650DE221750DD22DD52DD52DD
:100490000A0EDB2A0B0ED2E3DB2AD0D7D9CFE9FF35
:1004A000DACFEAFFEECF14F0EECF15F0EECF16F074
:1004B000EFCF17F0080ED8901732163215321432DB
:1004C000E806F9E1080E14C0DBFFD9CFE9FFDACF67
:1004D000EAFFEECF14F0EECF15F0EECF16F0EFCF2F
:1004E00017F01F0B07E0D89014361536163617365E
:1004F000E806F9E1080ED890173216321532143298
:10050000E806F9E1090E14C0DBFF0001A86BA96B36
:10051000D9CFE9FFDACFEAFFEECF06F0EECF07F052
:10052000EECF08F0EFCF09F07C0E065E060E075AFC
:10053000000E085A095AE80E0B6E010E0C6E0D6A79
:100540000E6AE7EC0BF002C006F003C007F004C02F
:1005500008F005C009F00B6A040E0C6E0D6A0E6AF5
:100560005BEC09F0040E06C0DBFF050E07C0DBFFE5
:10057000060E08C0DBFF070E09C0DBFF660E146E17
:10058000156E520E166E420E176E040EDBCF06F07D
:10059000050EDBCF07F0060EDBCF08F0070EDBCF32
:1005A00009F00A0E0B6E0C6A0D6A0E6A5BEC09F01C
:1005B000ABEC08F007C018F008C019F009C01AF039
:1005C0000AC01BF007C00CF008C00DF009C00EF007
:1005D0000AC00FF014C007F015C008F016C009F0EB
:1005E00017C00AF0C5EC08F08FEC09F008C0AAF0BB
:1005F00009C0ABF0C290C284C286C298C29AC280BF
:100600000A0EE66EE3EC0CF0E552DE6ADE6ADE6AA4
:10061000DD6ADD52DD520A0EDB6A0B0EDB6A0A0E62
:10062000DBCF14F00B0EDBCF15F0D890155004E69D
:100630000A0E145C000E155822E207EC0DF0F7ECE0
:100640000CF00009FCE1EEEC0CF0F3CF14F0F4CF69
:1006500015F0166A176A15AE02D01668176814509E
:10066000DE261550DE221650DE221750DD22DD5226
:10067000DD520A0EDB2A0B0ED2E3DB2AD0D7D9CF0C
:10068000E9FFDACFEAFFEECF06F0EECF07F0EECFCC
:1006900008F0EFCF09F02F0E0B6E0C6A0D6A0E6A90
:1006A0005BEC09F006C0DEFF07C0DEFF08C0DEFF1E
:1006B00009C0DDFFDD52DD52D9CFE9FFDACFEAFF15
:1006C000EECF14F0EECF15F0EECF16F0EFCF17F01F
:1006D000080ED8901732163215321432E806F9E1B6
:1006E000080E14C0DBFFD9CFE9FFDACFEAFFEECF67
:1006F00014F0EECF15F0EECF16F0EFCF17F01F0B82
:1007000007E0D8901436153616361736E806F9E1A4
:10071000080ED8901732163215321432E806F9E175
:10072000090E14C0DBFF080EDBCFB4F00001B56B7F
:10073000B4BFB569090EDBCFB6F0B76BB6BFB7690A
:10074000DB0EE66E000EE66EE10EE66EBE0EE66EA7
:10075000000EE66E44EC0AF0146E050EE15E1450D5
:1007600081D4D9CFE6FFE1CFD9FF120EE126080EE2
:10077000DB6A090EDB6A080EDBCF14F0090EDBCF53
:1007800015F0040E145C000E155871E2FC0EDB50DF
:10079000146E156A080EDBCFE9FF090EDBCFEAFF06
:1007A000060EEA02F3CFEAFFE902F3CFE9FFF450C5
:1007B000EA26A60EE926000EEA22EECF16F0EFCFCB
:1007C00017F0165014184CE11750151849E1080E8F
:1007D000DBCFE9FF090EDBCFEAFF060EEA02F3CF1B
:1007E000EAFFE902F3CFE9FFF450EA26A60EE92674
:1007F000000EEA22020EE926000EEA220A0EEFCFD0
:10080000DBFF080EDBCFE9FF090EDBCFEAFF060EA8
:10081000EA02F3CFEAFFE902F3CFE9FFF450EA2658
:10082000A60EE926000EEA22040EE926000EEA22B0
:100830000B0EEFCFDBFFD9500A0FE66E000EDA2069
:10084000E66EFC0EDBCFE6FFFD0EDBCFE6FFFE0E15
:10085000DBCFE6FF44EC0AF0146E050EE15E1450A7
:10086000080EDB2A090E01E286D7DB2A84D7120E96
:10087000E15C02E2E16AE552E16EE552E7CFD9FFC1
:100880001200C46AC36AC290C294C296C298C29A45
:10089000C19AC198C190C192C194C196C08EC086C0
:1008A000C088C09AC090C082C09492809282928484
:1008B0009286C280050EE66EE3EC0CF0E552120063
:1008C000D9CFE6FFE1CFD9FFE652DF6A080EDF5C41
:1008D00019E2DF50E76EFD0EDBCFE9FFFE0EDBCF46
:1008E000EAFFE750E926000EEA22EFCF14F0DF50CE
:1008F000EA6A600FE96E000EEA22EF50145C02E132
:10090000DF2AE4D7080EDF5C02E1000E1AD0DF50C8
:10091000EA6A600FE96E000EEA22EFCF14F0DF50B2
:10092000E76EFD0EDBCFE9FFFE0EDBCFEAFFE750FF
:10093000E926000EEA22EF50145C02E2FF0E01D01D
:10094000010EE552E552E7CFD9FF1200D9CFE6FFFD
:10095000E1CFD9FFE652DF6A080EDF5C13E2DF5019
:10096000EA6A600FE96E000EEA22EF50E66EDF5091
:10097000EA6A740FE96E000EEA22E552E750EF6E64
:10098000DF2AEAD7E552E552E7CFD9FF1200D9CFE7
:10099000E6FFE1CFD9FFFE0EDB506F6EE00E6E1466
:1009A000146EFE0EDB50145CF9E1E552E7CFD9FF7F
:1009B0001200D9CFE6FFE1CFD9FF800EE66EE7DF68
:1009C000E552FE0EDBCF0EFFE66AE1DFE552E552AF
:1009D000E7CFD9FF1200D9CFE6FFE1CFD9FF040E50
:1009E000E126FD0EDBCFE9FFFE0EDBCFEAFFEF983D
:1009F000FD0EDBCFE9FFFE0EDBCFEAFF040EE9269A
:100A0000000EEA220F0EEF140009EF6EFD0EDBCF91
:100A1000E9FFFE0EDBCFEAFF040EE926000EEA2214
:100A2000EF500F0B08080EE2FD0EDBCFE9FFFE0EC4
:100A3000DBCFEAFF040EE926000EEA22F00EEF14E7
:100A40000809EF6EFD0EDBCFE9FFFE0EDBCFEAFFFC
:100A5000EE52EF50E00BE838E840146EFD0EDBCFAD
:100A6000E9FFFE0EDBCFEAFF1450070BF36EF80E22
:100A7000EF14F310EF6EFD0EDBCFE9FFFE0EDBCFC0
:100A8000EAFFEE52EF50030BE76E030EE7CFDBFFFA
:100A9000FD0EDBCFE9FFFE0EDBCFEAFFEE52EF509B
:100AA0001C0B080DF350E66EFD0EDBCFE9FFFE0ECA
:100AB000DBCFEAFFEE52E552E750EF6E030EDB505C
:100AC0000809146EFD0EDBCFE9FFFE0EDBCFEAFF57
:100AD000EE521450EF1260B6FED7D950010FE96EF6
:100AE000DACFEAFF610EEE6E0F0EED6EDF6AFD0EDD
:100AF000DBCFE9FFFE0EDBCFEAFF040EE926000E96
:100B0000EA22EF500F0B050FDF5C1EE2FD0EDBCF7C
:100B1000E9FFFE0EDBCFEAFFDF50E924E96E000EAD
:100B2000EA20EA6EEF50E66E010EDBCFE9FF020E1F
:100B3000DBCFEAFFE552E750EF6EDF2A010EDB2A3A
:100B4000020ED5E3DB2AD3D76086040EE15C02E215
:100B5000E16AE552E16EE552E7CFD9FF1200D9CF45
:100B6000E6FFE1CFD9FF00016F8B6F8D6F9FEE0E17
:100B7000706F71697391739373957387FE0EDB04C5
:100B800020E06D51725D3EE1740EE66E000EE66E81
:100B900097DEE552E552FF0814E0D8DE0001FE0EB4
:100BA000726FA50E776E6F0EE66E000EE66E13DFA7
:100BB000E552E552E668FDDEE55200016E816E9376
:100BC00021D0C4DE68C072F0A50E776E6F0EE66E9F
:100BD000000EE66E00DFE552E552800E000168155A
:100BE00004E0F80E6815F80808E16E9168C06DF031
:100BF00068C0E6FFDEDEE55205D06E83696B6A6B86
:100C00006B6B6C6BE552E7CFD9FF1200D9CFE6FFD3
:100C1000E1CFD9FFE652DF6A00017E5107E16EA104
:100C200002D0020E01D0010EDF6E4AD07C510D0DB4
:100C3000F3CFE9FFF4CFEAFF7F0EE926000EEA22A8
:100C4000EECF14F0EECF15F0EECF16F0EECF17F09A
:100C5000EECF18F0EECF19F0EECF1AF0EECF1BF07A
:100C6000EECF1CF0EECF1DF0EECF1EF0EECF1FF05A
:100C7000EFCF20F0FD0EDBCFE9FFFE0EDBCFEAFF6A
:100C800014C0EEFF15C0EEFF16C0EEFF17C0EEFF5A
:100C900018C0EEFF19C0EEFF1AC0EEFF1BC0EEFF3A
:100CA0001CC0EEFF1DC0EEFF1EC0EEFF1FC0EEFF1A
:100CB00020C0EEFF7C2B010E7C5D01E37C6B7E0788
:100CC000DF50E552E552E7CFD9FF1200D9CFE6FF5A
:100CD000E1CFD9FFE652DF6AA39800016EA102D0EE
:100CE000020E4ED0010E8E5D06E28E2B8D2B010E74
:100CF0008D5D01E38D6BFD0EDBCFE9FFFE0EDBCFDB
:100D0000EAFFEECF14F0EECF15F0EECF16F0EECFF7
:100D100017F0EECF18F0EECF19F0EECF1AF0EECFBD
:100D20001BF0EECF1CF0EECF1DF0EECF1EF0EECF9D
:100D30001FF0EFCF20F08D510D0DF3CFE9FFF4CF71
:100D4000EAFF8F0EE926000EEA2214C0EEFF15C05E
:100D5000EEFF16C0EEFF17C0EEFF18C0EEFF19C081
:100D6000EEFF1AC0EEFF1BC0EEFF1CC0EEFF1DC061
:100D7000EEFF1EC0EEFF1FC0EEFF20C0EEFF01D051
:100D8000DF6EDF50E552E552E7CFD9FF1200D9CF31
:100D9000E6FFE1CFD9FFE6520001010E6E6F696BED
:100DA0006A6B6B6B6C6B8C6B8D698E6B7C6B7D690E
:100DB0007E6BFE0EDB500BE0040E6D6F676B666B97
:100DC000656B646B636B626B616B320E606F6DC0E1
:100DD00068F0800EE66EDBDDE552A00E776E0D0149
:100DE000E00EF86F0F01070E186F880E196F1A6B5F
:100DF0001B6B1C6B080E1D6F1E691F6B070E006FAF
:100E0000880E016F080E096F0A690D6F0E690D01DA
:100E10005C0EF06FE06BE16BE26B0D0ED46FD56B87
:100E2000010E706EBF0E716E870E726EE66AAFDDD8
:100E3000E552A50E776E030E606E010EE66E8FDE34
:100E4000E552E552E552E7CFD9FF1200D9CFE6FFD0
:100E5000E1CFD9FF020EE126FB0EDB50000169272E
:100E6000FC0EDB506A23FD0EDB506B23FE0EDB50C5
:100E70006C2320D801D900016E51020B11E0900EB5
:100E8000695DD00E6A59030E6B59000E6C5908E368
:100E90006E916E9368C06DF068C0E6FF8ADDE55222
:100EA000020EE15C02E2E16AE552E16EE552E7CF53
:100EB000D9FF1200D9CFE6FFE1CFD9FF040EE1261A
:100EC000020EDB6A74AEB1D0070E6F14B009776EF4
:100ED000610EDE6E0F0EDD6E030EDB6A050EF36E25
:100EE000030EDBCFF4FFF350F45C17E2DECFE9FF33
:100EF000DDCFEAFFEF50E66E030EDB50EA6A6F0FBC
:100F0000E96E000EEA22E552E750EF6E030EDB2A8F
:100F1000DF2A010EE3E3DB2AE1D7000173510F0B57
:100F2000080804E27391739373957387030EDB6A69
:100F300073510F0BF36E030EDBCFF4FFF350F45C31
:100F400017E2DECFE9FFDDCFEAFFEF50E66E030EDA
:100F5000DB50EA6A740FE96E000EEA22E552E750B0
:100F6000EF6E030EDB2ADF2A010EE2E3DB2AE0D775
:100F7000609E749E749EE00E7015E840E840E84064
:100F80001F0BE76E030EE7CFDBFF6F51070B070B5D
:100F9000200DF3CF14F0030EDBCFE6FF7015E55202
:100FA000E710F310706FE850EE0A0BE0040A0EE150
:100FB00074510CE1EA0E755D09E1765107E13FD805
:100FC00081D7020EE66ECBDDE5527CD7010E000123
:100FD0007E5D06E27E2B7D2B010E7D5D01E37D6B48
:100FE0007D510D0DF3CFE9FFF4CFEAFF7F0EE92627
:100FF000000EEA226FC0EEFF70C0EEFF71C0EEFF80
:1010000072C0EEFF73C0EEFF74C0EEFF75C0EEFF5E
:1010100076C0EEFF77C0EEFF78C0EEFF79C0EEFF3E
:101020007AC0EEFF7BC0EEFF4DD7040EE15C02E21A
:10103000E16AE552E16EE552E7CFD9FF1200000107
:101040006EA103D0FE0E726F02D06DC072F06F8B76
:101050006F8D6F9FEE0E706F7169739173937395BF
:10106000738774DCA50E776E6F0EE66E000EE66E6B
:10107000B2DCE552E5521200D9CFE6FFE1CFD9FF4D
:10108000020EE126040EDF6E00018E5103E1000125
:10109000E76B52D06EB10ED00001E7510EE0E705CC
:1010A000F76A080FF66E1A0EF7220800F550776EF1
:1010B00060A602D0020E41D0E76B00018E510008FD
:1010C0003BE2050E0001E75D37E2E751F76A080FE2
:1010D000F66E1A0EF7220800F550776E60B629D02A
:1010E00000018C510D0DF3CFE9FFF4CFEAFF8F0E15
:1010F000E926000EEA22030EE926000EEA226DC060
:10110000EFFF8C510D0DF3CF14F0F4CF15F08F0ECF
:101110001426000E152214C0E6FF15C0E6FF5BDCA6
:10112000E552E55200018C2B010E8C5D01E38C6BC6
:101130008E070001E72BC1D7000E146E020EE15C92
:1011400002E2E16AE552E16E1450E552E7CFD9FFC1
:0211500012008B
:0E115200019E0CD0019E09AE09D0066C071E4E
:10116000081E091EE86A072208220922018E09C00A
:1011700003F008C002F007C013F006C012F09E0E84
:10118000046E056ADAEF09F00F7E016A16EC0AF0C8
:101190002EEC0AF001B6BEEF09F001A20AD001AAB6
:1011A00003D001BEBEEF09F001A4CAEF09F0C7EFFA
:1011B00009F001AA05D001ACCAEF09F0C7EF09F0A8
:1011C00001A00AD001A808D001BE04D001A402D019
:1011D000D3EF09F0D7EF09F0126A056A0F500A5CE5
:1011E000116E10E307C013F008C002F009C003F04D
:1011F0000AC010F00CC007F00DC008F00EC009F0D6
:10120000013A09D00CC013F00DC002F00EC003F07B
:101210000FC010F0116C019E01BC018E10C004F0D3
:1012200001B006EF0AF01A0E116006EF0AF0046A28
:101230000A6A01A408D0076C081E091E0A1EE86A83
:10124000082209220A2201AC08D0136C021E031ED8
:10125000041EE86A022203220422066A115207E0F1
:101260000A340932083207320632112EF9D70750F4
:10127000132608500222095003220A50042206C0F5
:1012800012F0019E04AE0BD0126C131E021E031E40
:10129000041EE86A1322022203220422018E04A003
:1012A00006D0D8800332023213321232102A10C014
:1012B00004F0DAEF09F0006AE86A0EAE68EF09F0B0
:1012C0000B6C0C1E0D1E0E1E0C220D220E22001E7B
:1012D00009AE73EF09F0066C071E081E091E0722EF
:1012E00008220922001E50EC0CF009BE8AEF09F01A
:1012F00000AE000C066C071E081E091EE86A0722D5
:1013000008220922026C031E041E051E0322042269
:101310000522000C00BE7AEF09F00188FF0C016A7B
:1013200016EC0AF001B699EF09F001A20ED001B453
:1013300005D07F0E096EFF0E086E1FD0800E096E5D
:10134000086A1BD0096A086A18D001B0FBD78F0E53
:101350000A60EDD77E0E0A64F5D78E0E0A5C05E0B2
:10136000D890093208320A2AF8D701A406D0086CAE
:10137000091EE86A092209AEE5D712007F0E0A6E3F
:10138000FF0E096E086E076E12007F0E01BEFF0E83
:101390000A6E02D07F0E0A6E800E096E086A076A16
:1013A000F3D701AE04D0800E0A6E096AF7D70A6A35
:1013B000096AF4D70350021013101210F8E005BEAA
:1013C000F0D703BE0CD004500510EBE0D8901236D5
:1013D0001336023603360406D8A00506F2D70550A8
:1013E000D4E10428D2E012AE11D07F0E121402E133
:1013F00013A00CD0132AE86A0222032207E3D88044
:10140000033202321332042A0428BFE00450C9E038
:1014100013C007F002C008F00334096E04300A6EEE
:1014200009320A9E01BE0A8EC4EF09F009360A3657
:1014300002E30184017E06E101800A6A096A086A02
:10144000076A12000A2803E0D88009321200D890F7
:10145000093202E101821200018612000E360F36B7
:1014600002E3018C017E06E101880F6A0E6A0D6AB3
:101470000C6A12000F2803E0D8800E321200D890B8
:081480000E32EAE1018A1200BC
:08148800D9CFE6FFE1CFD9FF47
:10149000020EE126FD0EDBCFE9FFFE0EDBCFEAFFF9
:1014A000EF96FD0EDBCFE9FFFE0EDBCFEAFF1F0E4E
:1014B000EF146009EF6EFD0EDBCFE9FFFE0EDBCF10
:1014C000EAFF020EE926000EEA22EF68FD0EDBCFEE
:1014D000E9FFFE0EDBCFEAFF020EE926000EEA224C
:1014E000FC0EDBCFEFFFFD0EDBCFE9FFFE0EDBCF07
:1014F000EAFF040EE926000EEA22F00EEF140209BC
:10150000EF6EFD0EDBCFE9FFFE0EDBCFEAFFEE5202
:10151000EF68DE6ADD6ADECF14F0DDCF15F0020E73
:10152000145C000E155826E2FA0EDBCF16F0FB0E07
:10153000DBCF17F0DE501624E96EDD501720EA6E7F
:10154000EF50E66EFD0EDBCFE9FFFE0EDBCFEAFFCC
:10155000050EE926000EEA22DE50E924E96EDD5090
:10156000EA20EA6EE552E750EF6EDF2A010ED3E380
:10157000DB2AD1D7FD0EDBCFE6FFFE0EDBCFE6FF89
:1015800066EC06F0E552E55200090CE0050EE66E49
:10159000E66AE66AE66A26EC07F0E552E552E552AD
:1015A000E552E8D7020EE15C02E2E16AE552E16E43
:1015B000E552E7CFD9FF1200D9CFE6FFE1CFD9FF3F
:1015C000FD0EDBCFE9FFFE0EDBCFEAFFEF96FD0E4F
:1015D000DBCFE9FFFE0EDBCFEAFF1F0EEF14600941
:1015E000EF6EFD0EDBCFE9FFFE0EDBCFEAFF020E52
:1015F000E926000EEA22FB0EDBCFEFFFFD0EDBCF6C
:10160000E9FFFE0EDBCFEAFF040EE926000EEA2218
:10161000F00EEF140109EF6EFD0EDBCFE9FFFE0EB9
:10162000DBCFEAFFEE52010EEF6EFD0EDBCFE9FFDE
:10163000FE0EDBCFEAFF050EE926000EEA22F90EC8
:10164000DBCFEFFFFD0EDBCFE6FFFE0EDBCFE6FFCD
:1016500066EC06F0E552E55200090CE0050EE66E78
:10166000E66AE66AE66A26EC07F0E552E552E552DC
:10167000E552E8D7E552E7CFD9FF1200D38CD38AE1
:10168000D3889B8C0A0EE66E74EC0CF0E5521200C7
:101690000F0EC16E020E926E080E936E800E946E47
:1016A0008B6E3EEF0BF0D9CFE6FFE1CFD9FFACA2B6
:1016B000FED7FD0EDBCFE6FF8BEC0CF0E552E552DA
:1016C000E7CFD9FF1200D9CFE6FFE1CFD9FFFF0E58
:1016D000E66EE66AE8DFE552E552FE0EDBCF14F077
:1016E000156A14BE156814C0E6FF15C0E6FFDBDFFF
:1016F000E552E552FD0EDBCF14F0156A14BE1568F5
:1017000014C0E6FF15C0E6FFCEDFE552E552FC0E41
:10171000DBCF14F0156A14BE156814C0E6FF15C0BF
:10172000E6FFC1DFE552E552E552E7CFD9FF1200EF
:10173000060EF66E000EF76E000EF86E0001090040
:10174000F550E16F0900F550E26F03E1E16701D068
:101750003DD00900F550DC6F0900F550DD6F090040
:10176000F550DE6F09000900F550E96E0900F550EB
:10177000EA6E090009000900F550DF6F0900F55015
:10178000E06F09000900F6CFE3F0F7CFE4F0F8CFFF
:10179000E5F0DCC0F6FFDDC0F7FFDEC0F8FF0001BA
:1017A000DF5302E1E05307E00900F550EE6EDF077A
:1017B000F8E2E007F9D7E3C0F6FFE4C0F7FFE5C0C1
:0E17C000F8FF0001E107000EE25BBFD7120048
:0217CE000650C3
:1017D0000B02F3CF02F0F4CF03F00C02F350032618
:1017E000000EF420046E06500D02F3500426000E85
:1017F000F420056E06500E02F350052607500B022A
:10180000F3500326F4500422000E052207500C0268
:10181000F3500426F450052207500D02F35005261C
:1018200008500B02F3500426F450052208500C0215
:0E183000F350052609500B02F3500526120056
:02183E00D9CF00
:10184000E6FFE1CFD9FFC26AC06AFD0EDB407F0B25
:101850003C0BC26EFD0EDB38F00B300B146EFC0E31
:10186000DB500F0B1410C16EFE0EDB50040DF35055
:10187000380B156EFE0EDB380F0B070B146EFE0EC9
:10188000DB50800B14101510C06EFD0EDBAE03D0C4
:101890009E9C9D8CF28CC280E552E7CFD9FF12004E
:1018A000056A046A036A026A200EE76ED89006365B
:1018B00007360836093602360336043605360B502D
:1018C000025C0C5003580D5004580E50055809E3A3
:1018D0000B50025E0C50035A0D50045A0E50055A1C
:0818E000062AE72EE4D71200EE
:0818E800FF0EE350226EEF0E2B
:1018F00001D0F30EE76EE72E7BEF0CF00C0E216E9D
:10190000E76AE72E81EF0CF0212E80EF0CF0222EFB
:0619100079EF0CF012005B
:0A191600D9CFE6FFDACFE6FFE1CFFC
:10192000D9FFE2CFDAFFACAC04D0AC900001E6B353
:10193000AC80FD0EDB50AD6EE552E5CFDAFFE7CFB0
:04194000D9FF1200B9
:0C194400D9CFE6FFE1CFD9FFFE0EDB405B
:101950007F0B3C0B146EC30EC2141410C26EC282F5
:08196000E552E7CFD9FF1200A8
:08196800D9CFE6FFE1CFD9FF62
:10197000C30EC214146EFE0EDB407F0B3C0B141022
:0A198000C26EE552E7CFD9FF120056
:06198A00000EF36E00EEFA
:1019900000F00D0E01D81200EA6002D0EE6AFCD70A
:0A19A000F350E9601200EE6AFCD774
:0619AA001CEE00F02CEE23
:1019B00000F0F86A019C98EC0BF009EC0DF010ECCB
:0619C00000F0FBD712004D
:0A19C600FF0EE350E84E120000008F
:0C19D00000D000D000D0E82EFAD71200A2
:0419DC00C450176E6E
:0E19E000166AC3501610F36E17C0F4FF120003
:0219EE00C250E5
:0819F000020B01E0010E1200E0
:0619F800C2909D9C12004C
:0219FE008483E0
:031A000097969521
:051A0300848397969515
:051A0800848397969510
:011A0D0000D8
:021A0E00C28292
:021A10001200C2
:021A12001200C0
:0C1A140000000000000000000000C20004
:101A200000000000C10000000000C3000000000032
:061A3000C40000000000EC
:020000040030CA
:0100010008F6
:0100020019E4
:010003001EDE
:00000001FF
